{"abi":[{"type":"constructor","inputs":[{"name":"_initialOwner","type":"address","internalType":"address"},{"name":"_royaltyRecipient","type":"address","internalType":"address"}],"stateMutability":"nonpayable"},{"type":"function","name":"BURN_ADDRESS","inputs":[],"outputs":[{"name":"","type":"address","internalType":"address"}],"stateMutability":"view"},{"type":"function","name":"MIN_BURN","inputs":[],"outputs":[{"name":"","type":"uint256","internalType":"uint256"}],"stateMutability":"view"},{"type":"function","name":"approve","inputs":[{"name":"to","type":"address","internalType":"address"},{"name":"tokenId","type":"uint256","internalType":"uint256"}],"outputs":[],"stateMutability":"nonpayable"},{"type":"function","name":"balanceOf","inputs":[{"name":"owner","type":"address","internalType":"address"}],"outputs":[{"name":"","type":"uint256","internalType":"uint256"}],"stateMutability":"view"},{"type":"function","name":"getApproved","inputs":[{"name":"tokenId","type":"uint256","internalType":"uint256"}],"outputs":[{"name":"","type":"address","internalType":"address"}],"stateMutability":"view"},{"type":"function","name":"getMajorName","inputs":[{"name":"id","type":"uint8","internalType":"uint8"}],"outputs":[{"name":"","type":"string","internalType":"string"}],"stateMutability":"pure"},{"type":"function","name":"getMaterialName","inputs":[{"name":"id","type":"uint16","internalType":"uint16"}],"outputs":[{"name":"","type":"string","internalType":"string"}],"stateMutability":"pure"},{"type":"function","name":"getMaterialTier","inputs":[{"name":"id","type":"uint16","internalType":"uint16"}],"outputs":[{"name":"","type":"string","internalType":"string"}],"stateMutability":"pure"},{"type":"function","name":"getMinorName","inputs":[{"name":"majorId","type":"uint8","internalType":"uint8"},{"name":"minorId","type":"uint8","internalType":"uint8"}],"outputs":[{"name":"","type":"string","internalType":"string"}],"stateMutability":"pure"},{"type":"function","name":"getTokenData","inputs":[{"name":"tokenId","type":"uint256","internalType":"uint256"}],"outputs":[{"name":"seed","type":"uint64","internalType":"uint64"},{"name":"materialId","type":"uint16","internalType":"uint16"},{"name":"majorId","type":"uint8","internalType":"uint8"},{"name":"minorId","type":"uint8","internalType":"uint8"},{"name":"punchCount","type":"uint8","internalType":"uint8"},{"name":"hypeBurned","type":"uint120","internalType":"uint120"}],"stateMutability":"view"},{"type":"function","name":"isApprovedForAll","inputs":[{"name":"owner","type":"address","internalType":"address"},{"name":"operator","type":"address","internalType":"address"}],"outputs":[{"name":"","type":"bool","internalType":"bool"}],"stateMutability":"view"},{"type":"function","name":"mint","inputs":[{"name":"majorId","type":"uint8","internalType":"uint8"},{"name":"minorId","type":"uint8","internalType":"uint8"}],"outputs":[],"stateMutability":"payable"},{"type":"function","name":"name","inputs":[],"outputs":[{"name":"","type":"string","internalType":"string"}],"stateMutability":"view"},{"type":"function","name":"owner","inputs":[],"outputs":[{"name":"","type":"address","internalType":"address"}],"stateMutability":"view"},{"type":"function","name":"ownerOf","inputs":[{"name":"tokenId","type":"uint256","internalType":"uint256"}],"outputs":[{"name":"","type":"address","internalType":"address"}],"stateMutability":"view"},{"type":"function","name":"renounceOwnership","inputs":[],"outputs":[],"stateMutability":"nonpayable"},{"type":"function","name":"royaltyBasisPoints","inputs":[],"outputs":[{"name":"","type":"uint96","internalType":"uint96"}],"stateMutability":"view"},{"type":"function","name":"royaltyInfo","inputs":[{"name":"","type":"uint256","internalType":"uint256"},{"name":"salePrice","type":"uint256","internalType":"uint256"}],"outputs":[{"name":"","type":"address","internalType":"address"},{"name":"","type":"uint256","internalType":"uint256"}],"stateMutability":"view"},{"type":"function","name":"royaltyRecipient","inputs":[],"outputs":[{"name":"","type":"address","internalType":"address"}],"stateMutability":"view"},{"type":"function","name":"safeTransferFrom","inputs":[{"name":"from","type":"address","internalType":"address"},{"name":"to","type":"address","internalType":"address"},{"name":"tokenId","type":"uint256","internalType":"uint256"}],"outputs":[],"stateMutability":"nonpayable"},{"type":"function","name":"safeTransferFrom","inputs":[{"name":"from","type":"address","internalType":"address"},{"name":"to","type":"address","internalType":"address"},{"name":"tokenId","type":"uint256","internalType":"uint256"},{"name":"data","type":"bytes","internalType":"bytes"}],"outputs":[],"stateMutability":"nonpayable"},{"type":"function","name":"setApprovalForAll","inputs":[{"name":"operator","type":"address","internalType":"address"},{"name":"approved","type":"bool","internalType":"bool"}],"outputs":[],"stateMutability":"nonpayable"},{"type":"function","name":"supportsInterface","inputs":[{"name":"interfaceId","type":"bytes4","internalType":"bytes4"}],"outputs":[{"name":"","type":"bool","internalType":"bool"}],"stateMutability":"view"},{"type":"function","name":"symbol","inputs":[],"outputs":[{"name":"","type":"string","internalType":"string"}],"stateMutability":"view"},{"type":"function","name":"tokenData","inputs":[{"name":"","type":"uint256","internalType":"uint256"}],"outputs":[{"name":"","type":"bytes32","internalType":"bytes32"}],"stateMutability":"view"},{"type":"function","name":"tokenURI","inputs":[{"name":"tokenId","type":"uint256","internalType":"uint256"}],"outputs":[{"name":"","type":"string","internalType":"string"}],"stateMutability":"view"},{"type":"function","name":"transferFrom","inputs":[{"name":"from","type":"address","internalType":"address"},{"name":"to","type":"address","internalType":"address"},{"name":"tokenId","type":"uint256","internalType":"uint256"}],"outputs":[],"stateMutability":"nonpayable"},{"type":"function","name":"transferOwnership","inputs":[{"name":"newOwner","type":"address","internalType":"address"}],"outputs":[],"stateMutability":"nonpayable"},{"type":"event","name":"Approval","inputs":[{"name":"owner","type":"address","indexed":true,"internalType":"address"},{"name":"approved","type":"address","indexed":true,"internalType":"address"},{"name":"tokenId","type":"uint256","indexed":true,"internalType":"uint256"}],"anonymous":false},{"type":"event","name":"ApprovalForAll","inputs":[{"name":"owner","type":"address","indexed":true,"internalType":"address"},{"name":"operator","type":"address","indexed":true,"internalType":"address"},{"name":"approved","type":"bool","indexed":false,"internalType":"bool"}],"anonymous":false},{"type":"event","name":"HypeBurned","inputs":[{"name":"burner","type":"address","indexed":true,"internalType":"address"},{"name":"tokenId","type":"uint256","indexed":true,"internalType":"uint256"},{"name":"amount","type":"uint256","indexed":false,"internalType":"uint256"}],"anonymous":false},{"type":"event","name":"OwnershipTransferred","inputs":[{"name":"previousOwner","type":"address","indexed":true,"internalType":"address"},{"name":"newOwner","type":"address","indexed":true,"internalType":"address"}],"anonymous":false},{"type":"event","name":"Transfer","inputs":[{"name":"from","type":"address","indexed":true,"internalType":"address"},{"name":"to","type":"address","indexed":true,"internalType":"address"},{"name":"tokenId","type":"uint256","indexed":true,"internalType":"uint256"}],"anonymous":false},{"type":"error","name":"ERC721IncorrectOwner","inputs":[{"name":"sender","type":"address","internalType":"address"},{"name":"tokenId","type":"uint256","internalType":"uint256"},{"name":"owner","type":"address","internalType":"address"}]},{"type":"error","name":"ERC721InsufficientApproval","inputs":[{"name":"operator","type":"address","internalType":"address"},{"name":"tokenId","type":"uint256","internalType":"uint256"}]},{"type":"error","name":"ERC721InvalidApprover","inputs":[{"name":"approver","type":"address","internalType":"address"}]},{"type":"error","name":"ERC721InvalidOperator","inputs":[{"name":"operator","type":"address","internalType":"address"}]},{"type":"error","name":"ERC721InvalidOwner","inputs":[{"name":"owner","type":"address","internalType":"address"}]},{"type":"error","name":"ERC721InvalidReceiver","inputs":[{"name":"receiver","type":"address","internalType":"address"}]},{"type":"error","name":"ERC721InvalidSender","inputs":[{"name":"sender","type":"address","internalType":"address"}]},{"type":"error","name":"ERC721NonexistentToken","inputs":[{"name":"tokenId","type":"uint256","internalType":"uint256"}]},{"type":"error","name":"OwnableInvalidOwner","inputs":[{"name":"owner","type":"address","internalType":"address"}]},{"type":"error","name":"OwnableUnauthorizedAccount","inputs":[{"name":"account","type":"address","internalType":"address"}]}],"bytecode":{"object":"0x608034620003a357601f1990601f6001600160401b03620057283881900383810186168501919083831186841017620002c5578086926040948552833981010312620003a3576200005083620003c7565b90620000606020809501620003c7565b926200006b620003a7565b94601386527f48797065726c6971756964204f6d616d6f726900000000000000000000000000818701526200009f620003a7565b9660078852664f4d414d4f524960c81b828901528651848111620002c5575f546001988982811c9216801562000398575b85831014620002a657818684931162000345575b508490868311600114620002e5575f92620002d9575b50505f19600383901b1c191690881b175f555b8751938411620002c55786548781811c91168015620002ba575b83821014620002a6578381116200025e575b5081928411600114620001f857505081929394955f92620001ec575b50505f19600383901b1c191690841b1783555b6001600160a01b03908116928315620001d457600680546001600160a01b031981168617909155604051949083167f8be0079c531659141344cd1fd0a4f28419497f9722a3daafe3b4186f6b6457e05f80a360075516607d60a21b1760095561534b9081620003dd8239f35b604051631e4fbdf760e01b81525f6004820152602490fd5b015190505f8062000155565b5f878152828120918516989193925b8982106200024657505083879897959697106200022d575b505050811b01835562000168565b01515f1960f88460031b161c191690555f80806200021f565b80898596829496860151815501950193019062000207565b875f52825f208480870160051c8201928588106200029c575b0160051c019088905b8281106200029057505062000139565b5f815501889062000280565b9250819262000277565b634e487b7160e01b5f52602260045260245ffd5b90607f169062000127565b634e487b7160e01b5f52604160045260245ffd5b015190505f80620000fa565b90848b9416915f8052865f20925f5b888282106200032e575050841162000315575b505050811b015f556200010d565b01515f1960f88460031b161c191690555f808062000307565b8385015186558e97909501949384019301620002f4565b9091505f8052845f208680850160051c8201928786106200038e575b918c91869594930160051c01915b8281106200037f575050620000e4565b5f81558594508c91016200036f565b9250819262000361565b91607f1691620000d0565b5f80fd5b60408051919082016001600160401b03811183821017620002c557604052565b51906001600160a01b0382168203620003a35756fe60806040526004361015610011575f80fd5b5f3560e01c806301ffc9a7146101d457806306fdde03146101cf578063081812fc146101ca578063095ea7b3146101c55780630c46dcae146101c057806323b872dd146101bb57806329a0eee8146101b65780632a55205a146101b157806342260b5d146101ac57806342842e0e146101a757806349844b1c146101a25780634c00de821461019d5780636352211e1461019857806370a0823114610193578063715018a61461018e57806384c011be146101895780638da5cb5b1461018457806392b9780b1461017f57806395d89b411461017a578063a22cb46514610175578063b09afec114610170578063b4b5b48f1461016b578063b88d4fde14610166578063bb08bdf214610161578063c87b56dd1461015c578063e985e9c514610157578063f2fde38b146101525763fccc28131461014d575f80fd5b6113cc565b611340565b6112e4565b610dd4565b610dac565b610d25565b610bf1565b610b52565b610a9a565b6109d9565b6109bf565b610997565b61096f565b610914565b6108be565b61088e565b610866565b610845565b61081e565b6107fe565b6107ad565b6105fa565b6105b3565b610542565b61043b565b6103d3565b6102d1565b6101ef565b6001600160e01b03198116036101eb57565b5f80fd5b346101eb5760203660031901126101eb57602060043561020e816101d9565b63ffffffff60e01b1663152a902d60e11b8114908115610234575b506040519015158152f35b6380ac58cd60e01b811491508115610266575b8115610255575b505f610229565b6301ffc9a760e01b1490505f61024e565b635b5e139f60e01b81149150610247565b5f5b8381106102885750505f910152565b8181015183820152602001610279565b906020916102b181518092818552858086019101610277565b601f01601f1916010190565b9060206102ce928181520190610298565b90565b346101eb575f3660031901126101eb576040515f805460018160011c91600181169182156103c9575b6020916020851084146103b5578487526020870193908115610396575060011461033f575b61033b8661032f81880382610c6a565b604051918291826102bd565b0390f35b5f80805294509192917f290decd9548b62a8d60345a988386fc84ba6bc95484008f6362f93160ef3e5635b838610610385575050509101905061032f8261033b5f61031f565b80548587015294820194810161036a565b60ff1916845250505090151560051b01905061032f8261033b5f61031f565b634e487b7160e01b5f52602260045260245ffd5b92607f16926102fa565b346101eb5760203660031901126101eb576004356103f081612b33565b505f526004602052602060018060a01b0360405f205416604051908152f35b600435906001600160a01b03821682036101eb57565b602435906001600160a01b03821682036101eb57565b346101eb5760403660031901126101eb5761045461040f565b6024359061046182612b33565b33151580610523575b806104f6575b6104de576104dc926104bd9181906001600160a01b0385811691167f8c5be1e5ebec7d5bd14f71427d1e84f3dd0314c0f7b2291e5b200ac8c7c3b9255f80a45f52600460205260405f2090565b80546001600160a01b0319166001600160a01b03909216919091179055565b005b60405163a9fbf51f60e01b8152336004820152602490fd5b506001600160a01b0381165f90815260056020908152604080832033845290915290205460ff1615610470565b506001600160a01b03811633141561046a565b61ffff8116036101eb57565b346101eb5760203660031901126101eb5761033b61056a60043561056581610536565b6114bb565b604051918291602083526020830190610298565b60609060031901126101eb576001600160a01b039060043582811681036101eb579160243590811681036101eb579060443590565b346101eb576104dc6105c43661057e565b91611534565b60ff8116036101eb57565b60409060031901126101eb576004356105ed816105ca565b906024356102ce816105ca565b610603366105d5565b90610617662386f26fc100003410156116d5565b610626600c60ff831610611721565b610635600460ff841610611760565b6007549161064a610645846117b3565b600755565b6106775f8080803473fefefefefefefefefefefefefefefefefefefefe5af16106716117c1565b506117f0565b6106f660405160208101906106e7816106d986888a3344428a9493916076969391865260208601526bffffffffffffffffffffffff199060601b166040850152605484015260ff60f81b809260f81b16607484015260f81b1660758201520190565b03601f198101835282610c6a565b5190206001600160401b031690565b9161070083612bcd565b6001600160781b0334169360ff60981b601a65ffffffffffff8360101c160660981b169360ff60a01b9060a01b169260ff60a81b9060a81b169161ffff60b01b9060b01b16906001600160401b0360c01b9060c01b16171717171761076d825f52600860205260405f2090565b556107788133612c53565b60405134815233907fef438326854ec9192832fe803329d718bd1670de802612bd29d76427de8534909080602081015b0390a3005b346101eb5760403660031901126101eb5760095460a081901c6024358181029181159183041417156107f957604080516001600160a01b03939093168352612710909104602083015290f35b61179f565b346101eb575f3660031901126101eb57602060095460a01c604051908152f35b346101eb576104dc61082f3661057e565b906040519261083d84610c2f565b5f84526124fa565b346101eb575f3660031901126101eb576020604051662386f26fc100008152f35b346101eb575f3660031901126101eb576009546040516001600160a01b039091168152602090f35b346101eb5760203660031901126101eb5760206108ac600435612b33565b6040516001600160a01b039091168152f35b346101eb5760203660031901126101eb576001600160a01b036108df61040f565b1680156108fc575f526003602052602060405f2054604051908152f35b6040516322718ad960e21b81525f6004820152602490fd5b346101eb575f3660031901126101eb5761092c612d1f565b600680546001600160a01b031981169091555f906001600160a01b03167f8be0079c531659141344cd1fd0a4f28419497f9722a3daafe3b4186f6b6457e08280a3005b346101eb5760203660031901126101eb5761033b61056a600435610992816105ca565b611a15565b346101eb575f3660031901126101eb576006546040516001600160a01b039091168152602090f35b346101eb5761033b61056a6109d3366105d5565b90612173565b346101eb575f3660031901126101eb576040515f60018054908160011c9160018116918215610a90575b6020916020851084146103b55784875260208701939081156103965750600114610a375761033b8661032f81880382610c6a565b60015f90815294509192917fb10e2d527612073b26eecdfd717e6a320cf44b4afac2b0732d9fcbe2b7fa0cf65b838610610a7f575050509101905061032f8261033b5f61031f565b805485870152948201948101610a64565b92607f1692610a03565b346101eb5760403660031901126101eb57610ab361040f565b6024358015158082036101eb576001600160a01b038316928315610b3957335f9081526005602090815260408083206001600160a01b039094168352929052209060ff801983541691161790557f17307eab39ab6107e8899845ad3d59bd9653f200f220920489ca2b5937696c31604051806107a8339482919091602081019215159052565b604051630b61174360e31b815260048101859052602490fd5b346101eb5760203660031901126101eb576004355f81815260026020526040902054610b88906001600160a01b031615156124b7565b5f9081526008602090815260409182902054825160c082811c825261ffff60b084901c169382019390935260ff60a883901c81169482019490945260a082811c85166060830152609883901c90941660808201526001600160781b039091169281019290925290f35b346101eb5760203660031901126101eb576004355f526008602052602060405f2054604051908152f35b634e487b7160e01b5f52604160045260245ffd5b602081019081106001600160401b03821117610c4a57604052565b610c1b565b604081019081106001600160401b03821117610c4a57604052565b90601f801991011681019081106001600160401b03821117610c4a57604052565b6040519061018082018281106001600160401b03821117610c4a57604052565b60405190608082018281106001600160401b03821117610c4a57604052565b6040519061030082018281106001600160401b03821117610c4a57604052565b6040519061032082018281106001600160401b03821117610c4a57604052565b6001600160401b038111610c4a57601f01601f191660200190565b346101eb5760803660031901126101eb57610d3e61040f565b610d46610425565b606435916001600160401b0383116101eb57366023840112156101eb57826004013591610d7283610d0a565b92610d806040519485610c6a565b80845236602482870101116101eb576020815f9260246104dc98018388013785010152604435916124fa565b346101eb5760203660031901126101eb5761033b61056a600435610dcf81610536565b61293b565b346101eb5760203660031901126101eb576004355f81815260026020526040902054610e0a906001600160a01b031615156124b7565b60405163b09afec160e01b8152600481018290529060c082602481305afa80156112df575f905f915f945f80915f946112a5575b5080610e498661293b565b95610e53816114bb565b898686610e5f83611a15565b94610e6a8785612173565b96610e7494612de0565b98610e7e906134fe565b98610e88906135f3565b9960ff16610e95906134fe565b9360ff16610ea2906134fe565b9460ff16610eaf906134fe565b95610eb990613724565b966001600160781b0316610ecc906134fe565b604051717b226e616d65223a224f6d616d6f7269202360701b60208201529a8b9a91999160328c01610efd91612b1c565b61088b60f21b81526002017f226465736372697074696f6e223a22416e6369656e742074616c69736d616e7381527f20666f72206d6f6465726e20747261646572732e2046756c6c79206f6e2d6368602082015274185a5b8819d95b995c985d1a5d9948185c9d0b888b605a1b60408201526055017f22696d616765223a22646174613a696d6167652f7376672b786d6c3b626173658152620d8d0b60ea1b6020820152602301610fad91612b1c565b61088b60f21b81526002016d2261747472696275746573223a5b60901b8152600e017f7b2274726169745f74797065223a224d6174657269616c222c2276616c7565228152611d1160f11b602082015260220161100991612b1c565b62089f4b60ea1b81526003017f7b2274726169745f74797065223a225261726974792054696572222c2276616c8152643ab2911d1160d91b602082015260250161105291612b1c565b62089f4b60ea1b81526003017f7b2274726169745f74797065223a224d616a6f72222c2276616c7565223a22008152601f0161108d91612b1c565b62089f4b60ea1b81526003017f7b2274726169745f74797065223a224d696e6f72222c2276616c7565223a22008152601f016110c891612b1c565b62089f4b60ea1b81526003017f7b2274726169745f74797065223a224d616a6f72204944222c2276616c7565228152601d60f91b602082015260210161110d91612b1c565b611f4b60f21b81526002017f7b2274726169745f74797065223a224d696e6f72204944222c2276616c7565228152601d60f91b602082015260210161115191612b1c565b611f4b60f21b81526002017f7b2274726169745f74797065223a2250756e636820436f756e74222c2276616c8152633ab2911d60e11b602082015260240161119891612b1c565b611f4b60f21b81526002017f7b2274726169745f74797065223a2253656564222c2276616c7565223a22307881526020016111d291612b1c565b62089f4b60ea1b81526003017f7b2274726169745f74797065223a2248595045204275726e6564222c2276616c8152633ab2911d60e11b602082015260240161121a91612b1c565b607d60f81b8152600101615d7d60f01b81526002010390601f199182810182526112449082610c6a565b61124d906135f3565b6040517f646174613a6170706c69636174696f6e2f6a736f6e3b6261736536342c000000602082015291908290603d820161128791612b1c565b0390810182526112979082610c6a565b60405161033b8192826102bd565b9450505050506112ce91925060c03d60c0116112d8575b6112c68183610c6a565b810190612a9f565b929594915f610e3e565b503d6112bc565b612b11565b346101eb5760403660031901126101eb57602060ff61133461130461040f565b61130c610425565b6001600160a01b039182165f9081526005865260408082209290931681526020919091522090565b54166040519015158152f35b346101eb5760203660031901126101eb5761135961040f565b611361612d1f565b6001600160a01b039081169081156113b457600654826bffffffffffffffffffffffff60a01b821617600655167f8be0079c531659141344cd1fd0a4f28419497f9722a3daafe3b4186f6b6457e05f80a3005b604051631e4fbdf760e01b81525f6004820152602490fd5b346101eb575f3660031901126101eb57602060405173fefefefefefefefefefefefefefefefefefefefe8152f35b6040519061140782610c2f565b5f8252565b6040519061141982610c4f565b60088252672ab731b7b6b6b7b760c11b6020830152565b6040519061143d82610c4f565b60048252635261726560e01b6020830152565b6040519061145d82610c4f565b600a825269556c747261205261726560b01b6020830152565b6040519061148382610c4f565b60068252654d797468696360d01b6020830152565b604051906114a582610c4f565b60078252662ab735b737bbb760c91b6020830152565b61ffff166005811061151157600b811061150857601081106114ff57601681106114f6576018116114ee576102ce611498565b6102ce611476565b506102ce611450565b506102ce611430565b506102ce61140c565b5060405161151e81610c4f565b600681526521b7b6b6b7b760d11b602082015290565b6001600160a01b03828116939184156116bd57825f5260026020528260409583875f205416953315158061161f575b5061159e90876115f3575b6001600160a01b0381165f908152600360205260409020600181540190556104bd845f52600260205260405f2090565b857fddf252ad1be2c89b69c2b068fc378daa952ba7f163c4a11628f55a4df523b3ef5f80a416928383036115d25750505050565b6064945051926364283d7b60e01b8452600484015260248301526044820152fd5b6115fc846137f2565b6001600160a01b0388165f90815260036020526040902080545f1901905561156e565b9192509080611676575b15611637579084915f611563565b868587611657579051637e27328960e01b81526004810191909152602490fd5b905163177e802f60e01b81523360048201526024810191909152604490fd5b50338614801561169c575b806116295750845f5260046020523384885f20541614611629565b505f868152600560209081528882203383529052604090205460ff16611681565b604051633250574960e11b81525f6004820152602490fd5b156116dc57565b60405162461bcd60e51b815260206004820152601860248201527f496e73756666696369656e74206275726e20616d6f756e7400000000000000006044820152606490fd5b1561172857565b60405162461bcd60e51b815260206004820152601060248201526f125b9d985b1a59081b585a9bdc88125160821b6044820152606490fd5b1561176757565b60405162461bcd60e51b815260206004820152601060248201526f125b9d985b1a59081b5a5b9bdc88125160821b6044820152606490fd5b634e487b7160e01b5f52601160045260245ffd5b5f1981146107f95760010190565b3d156117eb573d906117d282610d0a565b916117e06040519384610c6a565b82523d5f602084013e565b606090565b156117f757565b60405162461bcd60e51b815260206004820152601060248201526f1216541148189d5c9b8819985a5b195960821b6044820152606490fd5b600281901b91906001600160fe1b038116036107f957565b6040519061185482610c4f565b60098252684c697175696469747960b81b6020830152565b6040519061187982610c4f565b60088252674c6576657261676560c01b6020830152565b6040519061189d82610c4f565b600a825269566f6c6174696c69747960b01b6020830152565b604051906118c382610c4f565b60098252684e617272617469766560b81b6020830152565b604051906118e882610c4f565b6009825268546865204d6163726f60b81b6020830152565b6040519061190d82610c4f565b600a8252694469736369706c696e6560b01b6020830152565b6040519061193382610c4f565b6004825263464f4d4f60e01b6020830152565b6040519061195382610c4f565b600382526211955160ea1b6020830152565b6040519061197282610c4f565b6003825262524e4760e81b6020830152565b6040519061199182610c4f565b600882526726b0bc102830b4b760c11b6020830152565b604051906119b582610c4f565b6008825267151a194810da185d60c21b6020830152565b604051906119d982610c4f565b600382526245676f60e81b6020830152565b634e487b7160e01b5f52603260045260245ffd5b90600c811015611a105760051b0190565b6119eb565b60ff611a1f610c8b565b91611a28611847565b8352611a3261186c565b6020840152611a3f611890565b6040840152611a4c6118b6565b6060840152611a596118db565b6080840152611a66611900565b60a0840152611a73611926565b60c0840152611a80611946565b60e0840152611a8d611965565b610100840152611a9b611984565b610120840152611aa96119a8565b610140840152611ab76119cc565b61016084015216600c811015611ad457611ad0916119ff565b5190565b50506102ce611498565b60405190611aeb82610c4f565b600b82526a546f75636820477261737360a81b6020830152565b60405190611b1282610c4f565b600b82526a121e5c195c9b1a5c5d5a5960aa1b6020830152565b60405190611b3982610c4f565b600682526546616d696c7960d01b6020830152565b60405190611b5b82610c4f565b60058252644e6565647360d81b6020830152565b906004811015611a105760051b0190565b60405190611b8d82610c4f565b6005825264416c70686160d81b6020830152565b60405190611bae82610c4f565b60048252630536c6f760e41b6020830152565b60405190611bce82610c4f565b600282526124b760f11b6020830152565b60405190611bec82610c4f565b600382526213dd5d60ea1b6020830152565b60405190611c0b82610c4f565b6009825268546f6f204561726c7960b81b6020830152565b60405190611c3082610c4f565b6008825267546f6f204c61746560c01b6020830152565b60405190611c5482610c4f565b600a825269546f6f204c6974746c6560b01b6020830152565b60405190611c7a82610c4f565b60088252670a8dede409aeac6d60c31b6020830152565b60405190611c9e82610c4f565b60058252644d696e747360d81b6020830152565b60405190611cbf82610c4f565b600d82526c4f7264657220526f7574696e6760981b6020830152565b60405190611ce882610c4f565b6006825265557074696d6560d01b6020830152565b60405190611d0a82610c4f565b600a825269283932b234b1ba34b7b760b11b6020830152565b60405190611d3082610c4f565b60068252655368696c6c7360d01b6020830152565b60405190611d5282610c4f565b60068252655073794f707360d01b6020830152565b60405190611d7482610c4f565b60048252635275677360e01b6020830152565b60405190611d9482610c4f565b60048252635363616d60e01b6020830152565b60405190611db482610c4f565b60048252631095119160e21b6020830152565b60405190611dd482610c4f565b600a825269151bdc0814da59db985b60b21b6020830152565b60405190611dfa82610c4f565b600c82526b4d61726b657420507269636560a01b6020830152565b60405190611e2282610c4f565b600a82526921b7b73b34b1ba34b7b760b11b6020830152565b60405190611e4882610c4f565b600b82526a15185ad948141c9bd99a5d60aa1b6020830152565b60405190611e6f82610c4f565b600482526353697a6560e01b6020830152565b60405190611e8f82610c4f565b6008825267537472617465677960c01b6020830152565b60405190611eb382610c4f565b6008825267536964656c696e6560c01b6020830152565b60405190611ed782610c4f565b60098252682932b3bab630ba37b960b91b6020830152565b60405190611efc82610c4f565b60048252632132b0b960e11b6020830152565b60405190611f1c82610c4f565b6004825263109d5b1b60e21b6020830152565b60405190611f3c82610c4f565b600a825269213630b1b59029bbb0b760b11b6020830152565b60405190611f6282610c4f565b600782526624b739b4b232b960c91b6020830152565b60405190611f8582610c4f565b60048252634879706560e01b6020830152565b60405190611fa582610c4f565b60048252634e65777360e01b6020830152565b60405190611fc582610c4f565b6004825263436f706560e01b6020830152565b60405190611fe582610c4f565b6004825263050756d760e41b6020830152565b6040519061200582610c4f565b6004825263044756d760e41b6020830152565b6040519061202582610c4f565b6004825263043686f760e41b6020830152565b6040519061204582610c4f565b60078252662830ba3a32b93760c91b6020830152565b6040519061206882610c4f565b600682526526b0b933b4b760d11b6020830152565b6040519061208a82610c4f565b6004825263131a5c5960e21b6020830152565b604051906120aa82610c4f565b60088252674d6178204c6f6e6760c01b6020830152565b604051906120ce82610c4f565b600982526813585e0814da1bdc9d60ba1b6020830152565b604051906120f382610c4f565b600582526446696c6c7360d81b6020830152565b6040519061211482610c4f565b600c82526b26b0b935b2ba16a6b0b5b2b960a11b6020830152565b6040519061213c82610c4f565b600682526514dc1c99585960d21b6020830152565b6040519061215e82610c4f565b6006825265566f6c756d6560d01b6020830152565b9060ff809216600c81108015906124aa575b61249f57806121d45750611ad09161219b610cab565b916121a46120e6565b83526121ae612107565b60208401526121bb61212f565b60408401526121c8612151565b60608401521690611b6f565b600181036122165750611ad0916121e9610cab565b916121f261205b565b83526121fc61207d565b602084015261220961209d565b60408401526121c86120c1565b600281036122585750611ad09161222b610cab565b91612234611fd8565b835261223e611ff8565b602084015261224b612018565b60408401526121c8612038565b6003810361229a5750611ad09161226d610cab565b91612276611f55565b8352612280611f78565b602084015261228d611f98565b60408401526121c8611fb8565b600481036122dc5750611ad0916122af610cab565b916122b8611eca565b83526122c2611eef565b60208401526122cf611f0f565b60408401526121c8611f2f565b6005810361231e5750611ad0916122f1610cab565b916122fa611e3b565b8352612304611e62565b6020840152612311611e82565b60408401526121c8611ea6565b600681036123605750611ad091612333610cab565b9161233c611da7565b8352612346611dc7565b6020840152612353611ded565b60408401526121c8611e15565b600781036123a25750611ad091612375610cab565b9161237e611d23565b8352612388611d45565b6020840152612395611d67565b60408401526121c8611d87565b600881036123e45750611ad0916123b7610cab565b916123c0611c91565b83526123ca611cb2565b60208401526123d7611cdb565b60408401526121c8611cfd565b600981036124265750611ad0916123f9610cab565b91612402611bfe565b835261240c611c23565b6020840152612419611c47565b60408401526121c8611c6d565b600a0361246657611ad091612439610cab565b91612442611b80565b835261244c611ba1565b6020840152612459611bc1565b60408401526121c8611bdf565b611ad091612472610cab565b9161247b611ade565b8352612485611b05565b6020840152612492611b2c565b60408401526121c8611b4e565b5050506102ce611498565b5060048383161015612185565b156124be57565b60405162461bcd60e51b8152602060048201526014602482015273151bdad95b88191bd95cc81b9bdd08195e1a5cdd60621b6044820152606490fd5b91929092612509818585611534565b833b612516575b50505050565b61253b916020916040519384928392630a85bd0160e11b978885523360048601612d60565b03815f6001600160a01b0388165af15f91816125cd575b5061259157826125606117c1565b805191908261258a57604051633250574960e11b81526001600160a01b0383166004820152602490fd5b6020915001fd5b6001600160e01b031916036125aa57505f808080612510565b604051633250574960e11b81526001600160a01b03919091166004820152602490fd5b6125f091925060203d6020116125f7575b6125e88183610c6a565b810190612d4b565b905f612552565b503d6125de565b6040519061260b82610c4f565b600482526315dbdbd960e21b6020830152565b6040519061262b82610c4f565b6005825264086d8dee8d60db1b6020830152565b6040519061264c82610c4f565b60058252642830b832b960d91b6020830152565b6040519061266d82610c4f565b6004825263436c617960e01b6020830152565b6040519061268d82610c4f565b60098252684c696d6573746f6e6560b81b6020830152565b604051906126b282610c4f565b6005825264536c61746560d81b6020830152565b604051906126d382610c4f565b600682526510985cd85b1d60d21b6020830152565b604051906126f582610c4f565b60078252664772616e69746560c81b6020830152565b6040519061271882610c4f565b60068252654d6172626c6560d01b6020830152565b6040519061273a82610c4f565b600682526542726f6e7a6560d01b6020830152565b6040519061275c82610c4f565b600882526727b139b4b234b0b760c11b6020830152565b6040519061278082610c4f565b600682526529b4b63b32b960d11b6020830152565b604051906127a282610c4f565b60048252634a61646560e01b6020830152565b604051906127c282610c4f565b600782526610dc9e5cdd185b60ca1b6020830152565b604051906127e582610c4f565b600482526309edcf2f60e31b6020830152565b6040519061280582610c4f565b600582526420b6b132b960d91b6020830152565b6040519061282682610c4f565b6008825267105b595d1a1e5cdd60c21b6020830152565b6040519061284a82610c4f565b600482526313dc185b60e21b6020830152565b6040519061286a82610c4f565b6007825266115b595c985b1960ca1b6020830152565b6040519061288d82610c4f565b6008825267536170706869726560c01b6020830152565b604051906128b182610c4f565b60048252635275627960e01b6020830152565b604051906128d182610c4f565b60058252644c6170697360d81b6020830152565b604051906128f282610c4f565b600482526311dbdb1960e21b6020830152565b6040519061291282610c4f565b60098252684d6574656f7269746560b81b6020830152565b906018811015611a105760051b0190565b61ffff612946610cca565b9161294f6125fe565b835261295961261e565b602084015261296661263f565b6040840152612973612660565b6060840152612980612680565b608084015261298d6126a5565b60a084015261299a6126c6565b60c08401526129a76126e8565b60e08401526129b461270b565b6101008401526129c261272d565b6101208401526129d061274f565b6101408401526129de612773565b6101608401526129ec612795565b6101808401526129fa6127b5565b6101a0840152612a086127d8565b6101c0840152612a166127f8565b6101e0840152612a24612819565b610200840152612a3261283d565b610220840152612a4061285d565b610240840152612a4e612880565b610260840152612a5c6128a4565b610280840152612a6a6128c4565b6102a0840152612a786128e5565b6102c0840152612a86612905565b6102e0840152166018811015611ad457611ad09161292a565b91908260c09103126101eb5781516001600160401b03811681036101eb57916020810151612acc81610536565b916040820151612adb816105ca565b916060810151612aea816105ca565b9160a06080830151612afb816105ca565b9201516001600160781b03811681036101eb5790565b6040513d5f823e3d90fd5b90612b2f60209282815194859201610277565b0190565b5f818152600260205260409020546001600160a01b0316908115612b55575090565b60249060405190637e27328960e01b82526004820152fd5b906001600160401b038092166006019182116107f957565b906001600160401b03809216600c019182116107f957565b906001600160401b038092166012019182116107f957565b906001600160401b038092166015019182116107f957565b6001600160401b03809116906127108206166113888110612c4757611d4c8110612c37576123288110612c275761261611612c1857612c1160036102ce9206612bb5565b61ffff1690565b612c1160036102ce9206612b9d565b50612c1160066102ce9206612b85565b50612c1160066102ce9206612b6d565b50600661ffff91061690565b906001600160a01b038083169081156116bd57825f52600260205260405f205416612cb18115159485612cf3575b6001600160a01b0381165f908152600360205260409020600181540190556104bd855f52600260205260405f2090565b7fddf252ad1be2c89b69c2b068fc378daa952ba7f163c4a11628f55a4df523b3ef5f80a4612cdb57565b6040516339e3563760e11b81525f6004820152602490fd5b612cfc856137f2565b6001600160a01b0383165f90815260036020526040902080545f19019055612c81565b6006546001600160a01b03163303612d3357565b60405163118cdaa760e01b8152336004820152602490fd5b908160209103126101eb57516102ce816101d9565b6001600160a01b0391821681529116602082015260408101919091526080606082018190526102ce92910190610298565b7f3c7265637420783d223130302220793d22313530222077696474683d2238303081527f22206865696768743d2231313030222072783d223430222072793d2234302220602082015260400190565b919290936130bf94612df0610cca565b94612df9613814565b8652612e03613837565b6020870152612e1061385a565b6040870152612e1d61387d565b6060870152612e2a6138a0565b6080870152612e376138c3565b60a0870152612e446138e6565b60c0870152612e51613909565b60e087015261ffff612e6161392c565b916101009283890152612e7261394f565b61012089015287612e81613972565b6101409081830152612e91613995565b6101609081840152612ea161385a565b6101809081850152612eb16139b8565b6101a09081860152612ec16139db565b916101c09283870152612ed261387d565b936101e09485880152612ee36139fe565b956102009687890152612ef4613a21565b976102209889820152612f05613a44565b610240820152612f13613a67565b610260820152612f21613a8a565b610280820152612f2f613aad565b6102a0820152612f3d613ad0565b6102c08201526102e0612f4e613af3565b910152612f59610cca565b9a612f62613b16565b8c52612f6c613b39565b60208d0152612f79613b5c565b60408d0152612f86613b7f565b60608d0152612f93613ba2565b60808d0152612fa0613bc5565b60a08d0152612fad613be8565b60c08d0152612fba613b39565b60e08d0152612fc7613c0b565b908c0152612fd3613c2e565b6101208c0152612fe1613b39565b908b0152612fed613b5c565b908a0152612ff9613837565b90890152613005613c51565b90880152613011613c74565b9087015261301d613b7f565b908601526130296139b8565b90850152613035613c97565b90840152613041613cba565b61024084015261304f613be8565b61026084015261305d613cdd565b61028084015261306b613c51565b6102a0840152613079613d00565b6102c0840152613087613b7f565b6102e084015216601881109681885f14613472576130a49161292a565b51965b1561345f576130b59161292a565b5195868095613d8b565b956130c991614bd9565b916130d391614eac565b906040519485946020860161315890605b907f3c7376672077696474683d223130303022206865696768743d2231343030222081527f76696577426f783d22302030203130303020313430302220786d6c6e733d226860208201527f7474703a2f2f7777772e77332e6f72672f323030302f737667223e000000000060408201520190565b651e3232b3399f60d11b81526006017f3c6c696e6561724772616469656e742069643d226d6174657269616c4772616481527f222078313d223025222079313d223025222078323d2231303025222079323d2260208201526518981812911f60d11b60408201526046017f3c73746f70206f66667365743d22302522207374796c653d2273746f702d636f8152633637b91d60e11b60208201526024016131ff9082612b1c565b711db9ba37b816b7b830b1b4ba3c9d1891179f60711b81526012017f3c73746f70206f66667365743d223130302522207374796c653d2273746f702d81526531b7b637b91d60d11b60208201526026016132599086612b1c565b711db9ba37b816b7b830b1b4ba3c9d1891179f60711b8152601201701e17b634b732b0b923b930b234b2b73a1f60791b8152601101661e17b232b3399f60c91b81526007016132a790612d91565b7f66696c6c3d2275726c28236d6174657269616c477261642922207374726f6b6581527f3d222330303022207374726f6b652d77696474683d2234222f3e0000000000006020820152603a017f3c7265637420783d223132302220793d22313730222077696474683d2237363081527f22206865696768743d2231303630222072783d223330222072793d22333022206020820152604001653334b6361e9160d11b815260060161335791612b1c565b70111037b830b1b4ba3c9e9118171991179f60791b81526011016a1e339039ba3937b5b29e9160a91b8152600b0161338f9085612b1c565b6711103334b6361e9160c11b81526008016133aa9085612b1c565b61111f60f11b81526002016133be91612b1c565b6133c791612b1c565b631e17b39f60e11b81526004016133dd91612b1c565b6133e690612d91565b733334b6361e913737b732911039ba3937b5b29e9160611b815260140161340c91612b1c565b7f22207374726f6b652d77696474683d223222206f7061636974793d22302e3822815261179f60f11b6020820152602201651e17b9bb339f60d11b81526006015b03601f19810182526102ce9082610c6a565b5050613469613b7f565b95868095613d8b565b505061347c613ba2565b966130a7565b6040519061348f82610c4f565b60018252600360fc1b6020830152565b906134a982610d0a565b6134b66040519182610c6a565b82815280926134c7601f1991610d0a565b0190602036910137565b5f198101919082116107f957565b90600282018092116107f957565b908151811015611a10570160200190565b801561357b57805f81805b61356357506135178161349f565b925b61352257505090565b5f1981019081116107f9578091600a91603083830681018091116107f95760f81b6001600160f81b0319165f1a9061355a90866134ed565b53049081613519565b9150613570600a916117b3565b910480839291613509565b506102ce613482565b60405190606082018281106001600160401b03821117610c4a57604052604082527f6768696a6b6c6d6e6f707172737475767778797a303132333435363738392b2f6040837f4142434445464748494a4b4c4d4e4f505152535455565758595a61626364656660208201520152565b80511561371b57613602613584565b9061361f61361a61361383516134df565b6003900490565b61182f565b916136298361349f565b60208101602084019160208551860101915b82841080156136d657906004915f906136c4575b8486106136b1575b8486106136a1575b600190603f9082828260121c168a0101518453828282600c1c168a0101518385015382828260061c168a0101516002850153168701015160038201530161363b565b60019086515f1a1795019461365f565b60019086515f1a60081b17950194613657565b50600185515f1a60101b95019461364f565b5093509493905060039150510680600114613706576002146136f9575b50815290565b603d905f1901535f6136f3565b50603d90816001198201535f1901535f6136f3565b506102ce6113fa565b906001600160401b0380831680156137e65790815f925b6137cc57506137498261349f565b916040519061375782610c4f565b601082526f181899199a1a9b1b9c1cb0b131b232b360811b60208301525b82861661378457509193505050565b613796670fffffffffffffff916134d1565b956137b56137a7600f8316856134ed565b516001600160f81b03191690565b5f1a6137c188876134ed565b5360041c1694613775565b9390916137d8906117b3565b9360041c809492919461373b565b505090506102ce613482565b613804905f52600460205260405f2090565b80546001600160a01b0319169055565b6040519061382182610c4f565b60078252662362383733333360c81b6020830152565b6040519061384482610c4f565b60078252660233730383039360cc1b6020830152565b6040519061386782610c4f565b60078252660236330633063360cc1b6020830152565b6040519061388a82610c4f565b600782526611999b1a1a9a3360c91b6020830152565b604051906138ad82610c4f565b600782526608d88d588d589960ca1b6020830152565b604051906138d082610c4f565b600782526611b11ab09b1a1960c91b6020830152565b604051906138f382610c4f565b600782526611b1b21bb3199960c91b6020830152565b6040519061391682610c4f565b60078252662337313739376560c81b6020830152565b6040519061393982610c4f565b6007825266119b991b9a1b9960c91b6020830152565b6040519061395c82610c4f565b60078252661198181a1bb0b160c91b6020830152565b6040519061397f82610c4f565b60078252662338373836383160c81b6020830152565b604051906139a282610c4f565b6007825266046c270c270c2760cb1b6020830152565b604051906139c582610c4f565b60078252660236461613532360cc1b6020830152565b604051906139e882610c4f565b60078252662334613461346160c81b6020830152565b60405190613a0b82610c4f565b60078252662366356635646360c81b6020830152565b60405190613a2e82610c4f565b6007825266046ca70c468c4760cb1b6020830152565b60405190613a5182610c4f565b600782526611b29ab29a329960c91b6020830152565b60405190613a7482610c4f565b600782526611b1b2b198311b60c91b6020830152565b60405190613a9782610c4f565b600782526611b19cb198313160c91b6020830152565b60405190613aba82610c4f565b60078252662364346166333760c81b6020830152565b60405190613add82610c4f565b60078252662365366538666160c81b6020830152565b60405190613b0082610c4f565b60078252662331633163316360c81b6020830152565b60405190613b2382610c4f565b60078252662338623435313360c81b6020830152565b60405190613b4682610c4f565b60078252661199331a331a3360c91b6020830152565b60405190613b6982610c4f565b60078252662336393639363960c81b6020830152565b60405190613b8c82610c4f565b60078252660233030303030360cc1b6020830152565b60405190613baf82610c4f565b60078252660233830383038360cc1b6020830152565b60405190613bd282610c4f565b6007825266119cb0b1b2199960c91b6020830152565b60405190613bf582610c4f565b600782526608d84c0d4c8c9960ca1b6020830152565b60405190613c1882610c4f565b6007825266119a9a9b31193360c91b6020830152565b60405190613c3b82610c4f565b60078252660233139313937360cc1b6020830152565b60405190613c5e82610c4f565b600782526611b11c1c1b183160c91b6020830152565b60405190613c8182610c4f565b60078252661199331933193360c91b6020830152565b60405190613ca482610c4f565b60078252662363643563356360c81b6020830152565b60405190613cc782610c4f565b60078252662364336433643360c81b6020830152565b60405190613cea82610c4f565b60078252662338623733353560c81b6020830152565b60405190613d0d82610c4f565b6007825266119c999b98323160c91b6020830152565b7f3c67207472616e73666f726d3d227472616e736c617465283330302c34303029815261111f60f11b602082015260220190565b7f3c636972636c652063783d2230222063793d22302220723d2238222066696c6c8152611e9160f11b602082015260220190565b60ff1680613eaa57506102ce613e8b916106d9613e9a604051948593613e85613e80613e60613e5a613dbf60208a01613d23565b7f3c7061746820643d224d2d34302c2d3630204c2d34302c2d3430204c34302c2d81527f3430204c34302c2d3230204c2d34302c2d3230204c2d34302c30204c34302c3060208201527f204c34302c3230204c2d34302c3230204c2d34302c3430204c34302c3430204c60408201527f34302c3630222066696c6c3d226e6f6e6522207374726f6b653d2200000000006060820152607b0190565b84612b1c565b73111039ba3937b5b296bbb4b23a341e911b11179f60611b815260140190565b613d57565b90612b1c565b6211179f60e91b815260030190565b631e17b39f60e11b815260040190565b60018103613fe057506102ce613fc0916106d9613e9a604051948593613e85613f97613f7a613e5a613f35613e60613f2f613ee760208d01613d23565b7f3c7061746820643d224d302c2d3630204c2d35302c3630204c35302c3630205a81527511103334b6361e913737b732911039ba3937b5b29e9160511b602082015260360190565b87612b1c565b7f3c7265637420783d222d32302220793d222d3230222077696474683d22343022815272103432b4b3b43a1e911a1811103334b6361e9160691b602082015260330190565b70111037b830b1b4ba3c9e9118171a91179f60791b815260110190565b7f3c7061746820643d224d302c2d3630204c302c363022207374726f6b653d22008152601f0190565b73111039ba3937b5b296bbb4b23a341e911a11179f60611b815260140190565b600281036140fa57506102ce613e8b916106d9613e9a604051948593613e856140c5613fc0613e5a61406c613e60613f2f61401d60208d01613d23565b7f3c7061746820643d224d2d36302c3020512d33302c2d343020302c302051333081527f2c34302036302c30222066696c6c3d226e6f6e6522207374726f6b653d2200006020820152603e0190565b7f3c7061746820643d224d2d36302c323020512d33302c2d323020302c3230205181527f33302c36302036302c3230222066696c6c3d226e6f6e6522207374726f6b653d6020820152601160f91b604082015260410190565b7f3c636972636c652063783d2230222063793d22302220723d223132222066696c815262361e9160e91b602082015260230190565b600381036141e157506102ce613e8b916106d9613e9a604051948593613e85613e806141c4613e5a614186613fc0613f2f61413760208d01613d23565b7f3c7061746820643d224d302c2d3530204c33352c2d3235204c302c30204c2d3381527f352c2d3235205a222066696c6c3d226e6f6e6522207374726f6b653d220000006020820152603d0190565b7f3c7061746820643d224d302c30204c33352c3235204c302c3530204c2d33352c81526b191a902d11103334b6361e9160a11b6020820152602c0190565b70111037b830b1b4ba3c9e9118171991179f60791b815260110190565b600481036142dc57506102ce6142bf916106d9613e9a604051948593613e8561427a613e60613e5a61421560208a01613d23565b7f3c7061746820643d224d2d36302c2d3430204c302c2d3630204c36302c2d343081527f204c36302c3430204c302c3630204c2d36302c3430205a222066696c6c3d226e60208201526c37b732911039ba3937b5b29e9160991b6040820152604d0190565b7f3c7265637420783d222d33302220793d222d3330222077696474683d22363022815272103432b4b3b43a1e911b1811103334b6361e9160691b602082015260330190565b70111037b830b1b4ba3c9e9118171911179f60791b815260110190565b600581036143e157506102ce613fc0916106d9613e9a604051948593613e856143a3613e8b613e5a61435e613e8b613f2f61431960208d01613d23565b7f3c7265637420783d222d35302220793d222d3330222077696474683d2231303081527211103432b4b3b43a1e911c11103334b6361e9160691b602082015260330190565b7f3c7265637420783d222d362220793d222d3530222077696474683d22313222208152723432b4b3b43a1e9118981811103334b6361e9160691b602082015260330190565b7f3c7061746820643d224d2d35302c30204c35302c30204d302c2d3530204c302c81526b1a98111039ba3937b5b29e9160a11b6020820152602c0190565b6006810361449457506102ce613e60916106d9613e9a604051948593613e85613f97614477613e5a61441560208a01613d23565b7f3c7061746820643d224d2d34302c2d3430204c302c2d3630204c34302c2d343081527f204c32302c2d3430204c32302c3430204c2d32302c3430204c2d32302c2d3430602082015269102d11103334b6361e9160b11b6040820152604a0190565b70111037b830b1b4ba3c9e9118171b91179f60791b815260110190565b6007810361465d57506040518091602082016144af90613d23565b7f3c656c6c697073652063783d222d3230222063793d222d3330222072783d22328152701a9110393c9e91189a91103334b6361e9160791b60208201526031016144f99082612b1c565b70111037b830b1b4ba3c9e9118171a11179f60791b81526011017f3c656c6c697073652063783d223230222063793d222d3330222072783d22323581526f1110393c9e91189a91103334b6361e9160811b602082015260300161455c9082612b1c565b70111037b830b1b4ba3c9e9118171a11179f60791b81526011017f3c656c6c697073652063783d2230222063793d222d3135222072783d2233302281526e10393c9e91191811103334b6361e9160891b6020820152602f016145be9082612b1c565b70111037b830b1b4ba3c9e9118171b11179f60791b81526011017f3c7061746820643d224d2d31302c3130204c2d352c3330204d302c3130204c3081527f2c3335204d31302c3130204c31352c333022207374726f6b653d2200000000006020820152603b0161462d91612b1c565b73111039ba3937b5b296bbb4b23a341e911991179f60611b81526014015b631e17b39f60e11b815260040161344d565b600881036147fe575060405180916020820161467890613d23565b7f3c636972636c652063783d2230222063793d22302220723d223430222066696c815270361e913737b732911039ba3937b5b29e9160791b60208201526031016146c29082612b1c565b7f22207374726f6b652d77696474683d223422207374726f6b652d64617368617281526b3930bc9e911898161a91179f60a11b6020820152602c017f3c7465787420783d22302220793d2231302220746578742d616e63686f723d2281527f6d6964646c652220666f6e742d73697a653d223430222066696c6c3d220000006020820152603d016147539082612b1c565b69111f1f9e17ba32bc3a1f60b11b8152600a017f3c636972636c652063783d222d3235222063793d222d32352220723d223522208152653334b6361e9160d11b60208201526026016147a59082612b1c565b6211179f60e91b81526003017f3c636972636c652063783d223235222063793d2232352220723d22352220666981526336361e9160e11b60208201526024016147ed91612b1c565b6211179f60e91b815260030161464b565b6009810361491857506102ce613fc0916106d9613e9a604051948593613e856148d46141c4613e5a61489f61487f613f2f61483b60208d01613d23565b7f3c7061746820643d224d2d34302c2d3430204c34302c3430204d34302c2d34308152711026169a18161a18111039ba3937b5b29e9160711b602082015260320190565b73111039ba3937b5b296bbb4b23a341e911c11179f60611b815260140190565b7f3c636972636c652063783d2230222063793d22302220723d223230222066696c815262361e9160e91b602082015260230190565b7f3c7061746820643d224d2d32302c2d3230204c32302c3230204d32302c2d32308152711026169918161918111039ba3937b5b29e9160711b602082015260320190565b600a03614a6c5760405180916020820161493190613d23565b7f3c636972636c652063783d222d3330222063793d22302220723d22382220666981526336361e9160e11b602082015260240161496e9082612b1c565b6211179f60e91b815260030161498390613d57565b61498d9082612b1c565b6211179f60e91b81526003017f3c636972636c652063783d223330222063793d22302220723d2238222066696c815262361e9160e91b60208201526023016149d59082612b1c565b6211179f60e91b81526003017f3c7265637420783d222d35302220793d222d3330222077696474683d2231303081527f22206865696768743d223630222066696c6c3d226e6f6e6522207374726f6b656020820152611e9160f11b6040820152604201614a4191612b1c565b7f22207374726f6b652d77696474683d2233222072783d223130222f3e000000008152601c0161464b565b6102ce613fc0916106d9613e9a604051948593613e85614b5a613e8b613e5a614b17614afa613f2f614aa060208d01613d23565b7f3c7061746820643d224d302c2d3530204c2d34302c30204c2d32302c30204c2d81527f32302c3430204c32302c3430204c32302c30204c34302c30205a222066696c6c6020820152611e9160f11b604082015260420190565b70111037b830b1b4ba3c9e9118171b11179f60791b815260110190565b7f3c7265637420783d222d32302220793d2230222077696474683d22343022206881527032b4b3b43a1e911a1811103334b6361e9160791b602082015260310190565b7f3c7061746820643d224d302c2d3530204c2d34302c30204c34302c30205a22208152733334b6361e913737b732911039ba3937b5b29e9160611b602082015260340190565b60405190614bad82610c4f565b601f82527f7472616e73666f726d3d227472616e736c617465283735302c313035302922006020830152565b9060ff614be4614ba0565b921680614c655750614c20916106d9613e9a613e8b6102ce94613e85614c2d604051988997613e8560208a016003906201e33960ed1b81520190565b601f60f91b815260010190565b7f3c7061746820643d224d2d32302c3230204c302c2d3230204c32302c323022208152653334b6361e9160d11b602082015260260190565b60018103614cdb5750614c20916106d9613e9a613e8b6102ce94613e85614ca2604051988997613e8560208a016003906201e33960ed1b81520190565b7f3c7061746820643d224d2d32302c2d3230204c302c3230204c32302c2d323022815266103334b6361e9160c91b602082015260270190565b600203614d5a57614c20916106d9613e9a613e8b6102ce94613e85614d16604051988997613e8560208a016003906201e33960ed1b81520190565b7f3c7265637420783d222d32302220793d222d35222077696474683d22343022208152713432b4b3b43a1e91189811103334b6361e9160711b602082015260320190565b614c20916106d9613e9a614dd16102ce94613e85614d8e604051988997613e8560208a016003906201e33960ed1b81520190565b7f3c636972636c652063783d2230222063793d22302220723d223135222066696c815270361e913737b732911039ba3937b5b29e9160791b602082015260310190565b7f22207374726f6b652d77696474683d223322207374726f6b652d64617368617281526a3930bc9e911a961a91179f60a91b6020820152602b0190565b60011b906101fe60fe8316921682036107f957565b60ff60039116029060ff82169182036107f957565b906019811015611a105760051b0190565b60ff60089116019060ff82116107f957565b9061ffff809216600a039182116107f957565b61ffff90811660091901919082116107f957565b61ffff91821690821603919082116107f957565b91909161ffff808094169116019182116107f957565b9060ff9060ff811692831561530957614ec3610cea565b6101f481529160209160208401614edb906101cc9052565b60409160408501614eed9061021c9052565b6101a460608601526101f4608086015261024460a086015261017c60c08601526101cc60e086015261010090818601614f279061021c9052565b61026c61012087015285610140808201614f42906101549052565b610160808301614f53906101a49052565b610180808401614f64906101f49052565b6101a0808501614f75906102449052565b6101c0808601614f86906102949052565b6101e0808701614f979061017c9052565b61020090818801614fa9906101cc9052565b61022092838901614fbb9061021c9052565b61024094858a01614fcd9061026c9052565b61026096878b01614fdf906101a49052565b61028098898c01614ff1906101f49052565b6102a09a8b8d01615003906102449052565b6102c09c8d8101615015906101cc9052565b61021c6102e08201526103000161502d906101f49052565b615035610cea565b6101a481529e8f906101d660208301526101d660408301526102086060830152610208608083015261020860a083015261023a60c083015261023a60e083015261023a9082015261023a61012082015261026c91015261026c908e015261026c908d015261026c908c015261026c908b015261029e908a015261029e9089015261029e9088015261029e908701526102d0908601526102d0908501526102d090840152610302908301526103026102e08301526103346103008301526150f96113fa565b97601910156152fd57506019939291909594955b5f965b8686168789161061512657505050505050505090565b909192939495806001899a6152c3896106d961528d8b879f61527b8d613e856152638f8f9561524f6152569261520c612c116151f16151c26151b4613e859d6151bc6151b46151ad8f6151a76151976151a7928f61518390614e0e565b60ff6001600160401b0380931691161c1690565b6001600160401b03601991160690565b60ff1690565b8093614e38565b5161ffff1690565b96614e38565b99615183615207615201612c116151f16151db8c614e23565b869060ff6001600160401b0380931691161c1690565b6001600160401b03601591160690565b98614e23565b614e49565b600a9761ffff9485938185168b116152eb576152309161522b91614e96565b614e6e565b985b828416106152d3576152479161522b91614e96565b965b166134fe565b94166134fe565b95519a8b998a0190612b1c565b6b1e31b4b931b6329031bc1e9160a11b8152600c0190565b65111031bc9e9160d11b815260060190565b7f2220723d223132222066696c6c3d222330303022206f7061636974793d22302e8152631c11179f60e11b602082015260240190565b9a01169750959493929190615110565b6152df6152e592614e5b565b90614e82565b96615249565b6152df6152f792614e5b565b98615232565b9392919095949561510d565b505050506102ce6113fa56fea264697066735822122015c868c542e6b9dd5c46ca90e161c73358334a04a77330f01cc3e09a33de257f64736f6c63430008180033","linkReferences":{}},"methodIdentifiers":{"BURN_ADDRESS()":"fccc2813","MIN_BURN()":"49844b1c","approve(address,uint256)":"095ea7b3","balanceOf(address)":"70a08231","getApproved(uint256)":"081812fc","getMajorName(uint8)":"84c011be","getMaterialName(uint16)":"bb08bdf2","getMaterialTier(uint16)":"0c46dcae","getMinorName(uint8,uint8)":"92b9780b","getTokenData(uint256)":"b09afec1","isApprovedForAll(address,address)":"e985e9c5","mint(uint8,uint8)":"29a0eee8","name()":"06fdde03","owner()":"8da5cb5b","ownerOf(uint256)":"6352211e","renounceOwnership()":"715018a6","royaltyBasisPoints()":"42260b5d","royaltyInfo(uint256,uint256)":"2a55205a","royaltyRecipient()":"4c00de82","safeTransferFrom(address,address,uint256)":"42842e0e","safeTransferFrom(address,address,uint256,bytes)":"b88d4fde","setApprovalForAll(address,bool)":"a22cb465","supportsInterface(bytes4)":"01ffc9a7","symbol()":"95d89b41","tokenData(uint256)":"b4b5b48f","tokenURI(uint256)":"c87b56dd","transferFrom(address,address,uint256)":"23b872dd","transferOwnership(address)":"f2fde38b"},"id":0}