{"abi":[{"type":"constructor","inputs":[{"name":"_initialOwner","type":"address","internalType":"address"},{"name":"_royaltyRecipient","type":"address","internalType":"address"}],"stateMutability":"nonpayable"},{"type":"function","name":"BURN_ADDRESS","inputs":[],"outputs":[{"name":"","type":"address","internalType":"address"}],"stateMutability":"view"},{"type":"function","name":"MIN_BURN","inputs":[],"outputs":[{"name":"","type":"uint256","internalType":"uint256"}],"stateMutability":"view"},{"type":"function","name":"approve","inputs":[{"name":"to","type":"address","internalType":"address"},{"name":"tokenId","type":"uint256","internalType":"uint256"}],"outputs":[],"stateMutability":"nonpayable"},{"type":"function","name":"balanceOf","inputs":[{"name":"owner","type":"address","internalType":"address"}],"outputs":[{"name":"","type":"uint256","internalType":"uint256"}],"stateMutability":"view"},{"type":"function","name":"getApproved","inputs":[{"name":"tokenId","type":"uint256","internalType":"uint256"}],"outputs":[{"name":"","type":"address","internalType":"address"}],"stateMutability":"view"},{"type":"function","name":"getMajorName","inputs":[{"name":"id","type":"uint8","internalType":"uint8"}],"outputs":[{"name":"","type":"string","internalType":"string"}],"stateMutability":"pure"},{"type":"function","name":"getMaterialName","inputs":[{"name":"id","type":"uint16","internalType":"uint16"}],"outputs":[{"name":"","type":"string","internalType":"string"}],"stateMutability":"pure"},{"type":"function","name":"getMaterialTier","inputs":[{"name":"id","type":"uint16","internalType":"uint16"}],"outputs":[{"name":"","type":"string","internalType":"string"}],"stateMutability":"pure"},{"type":"function","name":"getMinorName","inputs":[{"name":"majorId","type":"uint8","internalType":"uint8"},{"name":"minorId","type":"uint8","internalType":"uint8"}],"outputs":[{"name":"","type":"string","internalType":"string"}],"stateMutability":"pure"},{"type":"function","name":"getTokenData","inputs":[{"name":"tokenId","type":"uint256","internalType":"uint256"}],"outputs":[{"name":"seed","type":"uint64","internalType":"uint64"},{"name":"materialId","type":"uint16","internalType":"uint16"},{"name":"majorId","type":"uint8","internalType":"uint8"},{"name":"minorId","type":"uint8","internalType":"uint8"},{"name":"punchCount","type":"uint8","internalType":"uint8"},{"name":"hypeBurned","type":"uint120","internalType":"uint120"}],"stateMutability":"view"},{"type":"function","name":"isApprovedForAll","inputs":[{"name":"owner","type":"address","internalType":"address"},{"name":"operator","type":"address","internalType":"address"}],"outputs":[{"name":"","type":"bool","internalType":"bool"}],"stateMutability":"view"},{"type":"function","name":"mint","inputs":[{"name":"majorId","type":"uint8","internalType":"uint8"},{"name":"minorId","type":"uint8","internalType":"uint8"}],"outputs":[],"stateMutability":"payable"},{"type":"function","name":"name","inputs":[],"outputs":[{"name":"","type":"string","internalType":"string"}],"stateMutability":"view"},{"type":"function","name":"owner","inputs":[],"outputs":[{"name":"","type":"address","internalType":"address"}],"stateMutability":"view"},{"type":"function","name":"ownerOf","inputs":[{"name":"tokenId","type":"uint256","internalType":"uint256"}],"outputs":[{"name":"","type":"address","internalType":"address"}],"stateMutability":"view"},{"type":"function","name":"renounceOwnership","inputs":[],"outputs":[],"stateMutability":"nonpayable"},{"type":"function","name":"royaltyBasisPoints","inputs":[],"outputs":[{"name":"","type":"uint96","internalType":"uint96"}],"stateMutability":"view"},{"type":"function","name":"royaltyInfo","inputs":[{"name":"","type":"uint256","internalType":"uint256"},{"name":"salePrice","type":"uint256","internalType":"uint256"}],"outputs":[{"name":"","type":"address","internalType":"address"},{"name":"","type":"uint256","internalType":"uint256"}],"stateMutability":"view"},{"type":"function","name":"royaltyRecipient","inputs":[],"outputs":[{"name":"","type":"address","internalType":"address"}],"stateMutability":"view"},{"type":"function","name":"safeTransferFrom","inputs":[{"name":"from","type":"address","internalType":"address"},{"name":"to","type":"address","internalType":"address"},{"name":"tokenId","type":"uint256","internalType":"uint256"}],"outputs":[],"stateMutability":"nonpayable"},{"type":"function","name":"safeTransferFrom","inputs":[{"name":"from","type":"address","internalType":"address"},{"name":"to","type":"address","internalType":"address"},{"name":"tokenId","type":"uint256","internalType":"uint256"},{"name":"data","type":"bytes","internalType":"bytes"}],"outputs":[],"stateMutability":"nonpayable"},{"type":"function","name":"setApprovalForAll","inputs":[{"name":"operator","type":"address","internalType":"address"},{"name":"approved","type":"bool","internalType":"bool"}],"outputs":[],"stateMutability":"nonpayable"},{"type":"function","name":"supportsInterface","inputs":[{"name":"interfaceId","type":"bytes4","internalType":"bytes4"}],"outputs":[{"name":"","type":"bool","internalType":"bool"}],"stateMutability":"view"},{"type":"function","name":"symbol","inputs":[],"outputs":[{"name":"","type":"string","internalType":"string"}],"stateMutability":"view"},{"type":"function","name":"tokenData","inputs":[{"name":"","type":"uint256","internalType":"uint256"}],"outputs":[{"name":"","type":"bytes32","internalType":"bytes32"}],"stateMutability":"view"},{"type":"function","name":"tokenURI","inputs":[{"name":"tokenId","type":"uint256","internalType":"uint256"}],"outputs":[{"name":"","type":"string","internalType":"string"}],"stateMutability":"view"},{"type":"function","name":"transferFrom","inputs":[{"name":"from","type":"address","internalType":"address"},{"name":"to","type":"address","internalType":"address"},{"name":"tokenId","type":"uint256","internalType":"uint256"}],"outputs":[],"stateMutability":"nonpayable"},{"type":"function","name":"transferOwnership","inputs":[{"name":"newOwner","type":"address","internalType":"address"}],"outputs":[],"stateMutability":"nonpayable"},{"type":"event","name":"Approval","inputs":[{"name":"owner","type":"address","indexed":true,"internalType":"address"},{"name":"approved","type":"address","indexed":true,"internalType":"address"},{"name":"tokenId","type":"uint256","indexed":true,"internalType":"uint256"}],"anonymous":false},{"type":"event","name":"ApprovalForAll","inputs":[{"name":"owner","type":"address","indexed":true,"internalType":"address"},{"name":"operator","type":"address","indexed":true,"internalType":"address"},{"name":"approved","type":"bool","indexed":false,"internalType":"bool"}],"anonymous":false},{"type":"event","name":"HypeBurned","inputs":[{"name":"burner","type":"address","indexed":true,"internalType":"address"},{"name":"tokenId","type":"uint256","indexed":true,"internalType":"uint256"},{"name":"amount","type":"uint256","indexed":false,"internalType":"uint256"}],"anonymous":false},{"type":"event","name":"OwnershipTransferred","inputs":[{"name":"previousOwner","type":"address","indexed":true,"internalType":"address"},{"name":"newOwner","type":"address","indexed":true,"internalType":"address"}],"anonymous":false},{"type":"event","name":"Transfer","inputs":[{"name":"from","type":"address","indexed":true,"internalType":"address"},{"name":"to","type":"address","indexed":true,"internalType":"address"},{"name":"tokenId","type":"uint256","indexed":true,"internalType":"uint256"}],"anonymous":false},{"type":"error","name":"ERC721IncorrectOwner","inputs":[{"name":"sender","type":"address","internalType":"address"},{"name":"tokenId","type":"uint256","internalType":"uint256"},{"name":"owner","type":"address","internalType":"address"}]},{"type":"error","name":"ERC721InsufficientApproval","inputs":[{"name":"operator","type":"address","internalType":"address"},{"name":"tokenId","type":"uint256","internalType":"uint256"}]},{"type":"error","name":"ERC721InvalidApprover","inputs":[{"name":"approver","type":"address","internalType":"address"}]},{"type":"error","name":"ERC721InvalidOperator","inputs":[{"name":"operator","type":"address","internalType":"address"}]},{"type":"error","name":"ERC721InvalidOwner","inputs":[{"name":"owner","type":"address","internalType":"address"}]},{"type":"error","name":"ERC721InvalidReceiver","inputs":[{"name":"receiver","type":"address","internalType":"address"}]},{"type":"error","name":"ERC721InvalidSender","inputs":[{"name":"sender","type":"address","internalType":"address"}]},{"type":"error","name":"ERC721NonexistentToken","inputs":[{"name":"tokenId","type":"uint256","internalType":"uint256"}]},{"type":"error","name":"OwnableInvalidOwner","inputs":[{"name":"owner","type":"address","internalType":"address"}]},{"type":"error","name":"OwnableUnauthorizedAccount","inputs":[{"name":"account","type":"address","internalType":"address"}]}],"bytecode":{"object":"0x608034620003a357601f1990601f6001600160401b03620037873881900383810186168501919083831186841017620002c5578086926040948552833981010312620003a3576200005083620003c7565b90620000606020809501620003c7565b926200006b620003a7565b94601386527f48797065726c6971756964204f6d616d6f726900000000000000000000000000818701526200009f620003a7565b9660078852664f4d414d4f524960c81b828901528651848111620002c5575f546001988982811c9216801562000398575b85831014620002a657818684931162000345575b508490868311600114620002e5575f92620002d9575b50505f19600383901b1c191690881b175f555b8751938411620002c55786548781811c91168015620002ba575b83821014620002a6578381116200025e575b5081928411600114620001f857505081929394955f92620001ec575b50505f19600383901b1c191690841b1783555b6001600160a01b03908116928315620001d457600680546001600160a01b031981168617909155604051949083167f8be0079c531659141344cd1fd0a4f28419497f9722a3daafe3b4186f6b6457e05f80a360075516607d60a21b176009556133aa9081620003dd8239f35b604051631e4fbdf760e01b81525f6004820152602490fd5b015190505f8062000155565b5f878152828120918516989193925b8982106200024657505083879897959697106200022d575b505050811b01835562000168565b01515f1960f88460031b161c191690555f80806200021f565b80898596829496860151815501950193019062000207565b875f52825f208480870160051c8201928588106200029c575b0160051c019088905b8281106200029057505062000139565b5f815501889062000280565b9250819262000277565b634e487b7160e01b5f52602260045260245ffd5b90607f169062000127565b634e487b7160e01b5f52604160045260245ffd5b015190505f80620000fa565b90848b9416915f8052865f20925f5b888282106200032e575050841162000315575b505050811b015f556200010d565b01515f1960f88460031b161c191690555f808062000307565b8385015186558e97909501949384019301620002f4565b9091505f8052845f208680850160051c8201928786106200038e575b918c91869594930160051c01915b8281106200037f575050620000e4565b5f81558594508c91016200036f565b9250819262000361565b91607f1691620000d0565b5f80fd5b60408051919082016001600160401b03811183821017620002c557604052565b51906001600160a01b0382168203620003a35756fe60806040526004361015610011575f80fd5b5f3560e01c806301ffc9a7146101d457806306fdde03146101cf578063081812fc146101ca578063095ea7b3146101c55780630c46dcae146101c057806323b872dd146101bb57806329a0eee8146101b65780632a55205a146101b157806342260b5d146101ac57806342842e0e146101a757806349844b1c146101a25780634c00de821461019d5780636352211e1461019857806370a0823114610193578063715018a61461018e57806384c011be146101895780638da5cb5b1461018457806392b9780b1461017f57806395d89b411461017a578063a22cb46514610175578063b09afec114610170578063b4b5b48f1461016b578063b88d4fde14610166578063bb08bdf214610161578063c87b56dd1461015c578063e985e9c514610157578063f2fde38b146101525763fccc28131461014d575f80fd5b61140d565b611381565b611325565b610d8b565b610d63565b610cdc565b610bc8565b610b5c565b610aa4565b6109e3565b6109c9565b6109a1565b610979565b61091e565b6108c8565b610898565b610870565b61084f565b61081c565b6107fc565b6107ab565b6105fa565b6105b3565b610542565b61043b565b6103d3565b6102d1565b6101ef565b6001600160e01b03198116036101eb57565b5f80fd5b346101eb5760203660031901126101eb57602060043561020e816101d9565b63ffffffff60e01b1663152a902d60e11b8114908115610234575b506040519015158152f35b6380ac58cd60e01b811491508115610266575b8115610255575b505f610229565b6301ffc9a760e01b1490505f61024e565b635b5e139f60e01b81149150610247565b5f5b8381106102885750505f910152565b8181015183820152602001610279565b906020916102b181518092818552858086019101610277565b601f01601f1916010190565b9060206102ce928181520190610298565b90565b346101eb575f3660031901126101eb576040515f805460018160011c91600181169182156103c9575b6020916020851084146103b5578487526020870193908115610396575060011461033f575b61033b8661032f81880382610c41565b604051918291826102bd565b0390f35b5f80805294509192917f290decd9548b62a8d60345a988386fc84ba6bc95484008f6362f93160ef3e5635b838610610385575050509101905061032f8261033b5f61031f565b80548587015294820194810161036a565b60ff1916845250505090151560051b01905061032f8261033b5f61031f565b634e487b7160e01b5f52602260045260245ffd5b92607f16926102fa565b346101eb5760203660031901126101eb576004356103f081612a84565b505f526004602052602060018060a01b0360405f205416604051908152f35b600435906001600160a01b03821682036101eb57565b602435906001600160a01b03821682036101eb57565b346101eb5760403660031901126101eb5761045461040f565b6024359061046182612a84565b33151580610523575b806104f6575b6104de576104dc926104bd9181906001600160a01b0385811691167f8c5be1e5ebec7d5bd14f71427d1e84f3dd0314c0f7b2291e5b200ac8c7c3b9255f80a45f52600460205260405f2090565b80546001600160a01b0319166001600160a01b03909216919091179055565b005b60405163a9fbf51f60e01b8152336004820152602490fd5b506001600160a01b0381165f90815260056020908152604080832033845290915290205460ff1615610470565b506001600160a01b03811633141561046a565b61ffff8116036101eb57565b346101eb5760203660031901126101eb5761033b61056a60043561056581610536565b6114fc565b604051918291602083526020830190610298565b60609060031901126101eb576001600160a01b039060043582811681036101eb579160243590811681036101eb579060443590565b346101eb576104dc6105c43661057e565b91611575565b60ff8116036101eb57565b60409060031901126101eb576004356105ed816105ca565b906024356102ce816105ca565b610603366105d5565b90610617662386f26fc10000341015611716565b610626600c60ff831610611762565b610635600460ff8416106117a1565b6007549161064a610645846117f4565b600755565b6106c960405160208101906106ba816106ac86888a3344428a9493916076969391865260208601526bffffffffffffffffffffffff199060601b166040850152605484015260ff60f81b809260f81b16607484015260f81b1660758201520190565b03601f198101835282610c41565b5190206001600160401b031690565b916106d383612b1e565b6001600160781b0334169360ff60981b601a63ffffffff8360201c160660981b169360ff60a01b9060a01b169260ff60a81b9060a81b169161ffff60b01b9060b01b16906001600160401b0360c01b9060c01b16171717171761073e825f52600860205260405f2090565b5561076c5f8080803473fefefefefefefefefefefefefefefefefefefefe5af1610766611802565b50611831565b6107768133612bad565b60405134815233907fef438326854ec9192832fe803329d718bd1670de802612bd29d76427de8534909080602081015b0390a3005b346101eb5760403660031901126101eb5760095460a081901c6024358181029181159183041417156107f757604080516001600160a01b03939093168352612710909104602083015290f35b6117e0565b346101eb575f3660031901126101eb57602060095460a01c604051908152f35b346101eb576104dc61082d3661057e565b906040519261083b84610c06565b5f8452610849838383611575565b33612e29565b346101eb575f3660031901126101eb576020604051662386f26fc100008152f35b346101eb575f3660031901126101eb576009546040516001600160a01b039091168152602090f35b346101eb5760203660031901126101eb5760206108b6600435612a84565b6040516001600160a01b039091168152f35b346101eb5760203660031901126101eb576001600160a01b036108e961040f565b168015610906575f526003602052602060405f2054604051908152f35b6040516322718ad960e21b81525f6004820152602490fd5b346101eb575f3660031901126101eb57610936612c95565b600680546001600160a01b031981169091555f906001600160a01b03167f8be0079c531659141344cd1fd0a4f28419497f9722a3daafe3b4186f6b6457e08280a3005b346101eb5760203660031901126101eb5761033b61056a60043561099c816105ca565b611a56565b346101eb575f3660031901126101eb576006546040516001600160a01b039091168152602090f35b346101eb5761033b61056a6109dd366105d5565b906121b4565b346101eb575f3660031901126101eb576040515f60018054908160011c9160018116918215610a9a575b6020916020851084146103b55784875260208701939081156103965750600114610a415761033b8661032f81880382610c41565b60015f90815294509192917fb10e2d527612073b26eecdfd717e6a320cf44b4afac2b0732d9fcbe2b7fa0cf65b838610610a89575050509101905061032f8261033b5f61031f565b805485870152948201948101610a6e565b92607f1692610a0d565b346101eb5760403660031901126101eb57610abd61040f565b6024358015158082036101eb576001600160a01b038316928315610b4357335f9081526005602090815260408083206001600160a01b039094168352929052209060ff801983541691161790557f17307eab39ab6107e8899845ad3d59bd9653f200f220920489ca2b5937696c31604051806107a6339482919091602081019215159052565b604051630b61174360e31b815260048101859052602490fd5b346101eb5760203660031901126101eb576004355f52600860205260c060405f20546001600160781b036040519180841c835261ffff8160b01c16602084015260ff8160a81c16604084015260ff8160a01c16606084015260ff8160981c1660808401521660a0820152f35b346101eb5760203660031901126101eb576004355f526008602052602060405f2054604051908152f35b634e487b7160e01b5f52604160045260245ffd5b602081019081106001600160401b03821117610c2157604052565b610bf2565b604081019081106001600160401b03821117610c2157604052565b90601f801991011681019081106001600160401b03821117610c2157604052565b6040519061018082018281106001600160401b03821117610c2157604052565b60405190608082018281106001600160401b03821117610c2157604052565b6040519061030082018281106001600160401b03821117610c2157604052565b6001600160401b038111610c2157601f01601f191660200190565b346101eb5760803660031901126101eb57610cf561040f565b610cfd610425565b606435916001600160401b0383116101eb57366023840112156101eb57826004013591610d2983610cc1565b92610d376040519485610c41565b80845236602482870101116101eb576020815f9260246104dc98018388013785010152604435916124f8565b346101eb5760203660031901126101eb5761033b61056a600435610d8681610536565b612849565b346101eb5760203660031901126101eb576004355f81815260026020526040902054610dc1906001600160a01b031615156129ad565b60405163b09afec160e01b81526004810182905260c081602481305afa908115611320575f915f925f925f80915f946112e5575b50610dff86612849565b95610e09906114fc565b610e1286611a56565b610e1c83886121b4565b91610e268a612f48565b98610e308b612f48565b9a610e3a90612f48565b9860ff16610e4790612f48565b9460ff16610e5490612f48565b9560ff16610e6190612f48565b96610e6b90612fce565b97610e759061309c565b604051717b226e616d65223a224f6d616d6f7269202360701b60208201529b8c9b919a9160328d01610ea691612a6d565b61088b60f21b81526002017f226465736372697074696f6e223a22416e6369656e742074616c69736d616e7381527f20666f72206d6f6465726e20747261646572732e20486967682d7175616c697460208201527f79206f66662d636861696e2067656e65726174697665206172742e222c0000006040820152605d017f22696d616765223a2268747470733a2f2f676174657761792e70696e6174612e81527f636c6f75642f697066732f516d52656e646572486173682f00000000000000006020820152603801610f7891612a6d565b650b9cdd99c88b60d21b81526006017f2265787465726e616c5f75726c223a2268747470733a2f2f68797065722e666181526b6974682f6f6d616d6f72692f60a01b6020820152602c01610fcb91612a6d565b61088b60f21b81526002016d2261747472696275746573223a5b60901b8152600e017f7b2274726169745f74797065223a224d6174657269616c222c2276616c7565228152611d1160f11b602082015260220161102791612a6d565b62089f4b60ea1b81526003017f7b2274726169745f74797065223a225261726974792054696572222c2276616c8152643ab2911d1160d91b602082015260250161107091612a6d565b62089f4b60ea1b81526003017f7b2274726169745f74797065223a224d616a6f7220417263616e756d222c227681526630b63ab2911d1160c91b60208201526027016110bb91612a6d565b62089f4b60ea1b81526003017f7b2274726169745f74797065223a224d696e6f7220417263616e756d222c227681526630b63ab2911d1160c91b602082015260270161110691612a6d565b62089f4b60ea1b81526003017f7b2274726169745f74797065223a224d616a6f72204944222c2276616c7565228152601d60f91b602082015260210161114b91612a6d565b611f4b60f21b81526002017f7b2274726169745f74797065223a224d696e6f72204944222c2276616c7565228152601d60f91b602082015260210161118f91612a6d565b611f4b60f21b81526002017f7b2274726169745f74797065223a2250756e636820436f756e74222c2276616c8152633ab2911d60e11b60208201526024016111d691612a6d565b611f4b60f21b81526002017f7b2274726169745f74797065223a2253656564222c2276616c7565223a223078815260200161121091612a6d565b62089f4b60ea1b81526003017f7b2274726169745f74797065223a2248595045204275726e6564222c2276616c8152643ab2911d1160d91b602082015260250161125991612a6d565b61227d60f01b8152600201615d7d60f01b81526002010390601f199182810182526112849082610c41565b61128d906131b3565b6040517f646174613a6170706c69636174696f6e2f6a736f6e3b6261736536342c000000602082015291908290603d82016112c791612a6d565b0390810182526112d79082610c41565b60405161033b8192826102bd565b94505050505061130d915060c03d60c011611319575b6113058183610c41565b8101906129f0565b9394929392915f610df5565b503d6112fb565b612a62565b346101eb5760403660031901126101eb57602060ff61137561134561040f565b61134d610425565b6001600160a01b039182165f9081526005865260408082209290931681526020919091522090565b54166040519015158152f35b346101eb5760203660031901126101eb5761139a61040f565b6113a2612c95565b6001600160a01b039081169081156113f557600654826bffffffffffffffffffffffff60a01b821617600655167f8be0079c531659141344cd1fd0a4f28419497f9722a3daafe3b4186f6b6457e05f80a3005b604051631e4fbdf760e01b81525f6004820152602490fd5b346101eb575f3660031901126101eb57602060405173fefefefefefefefefefefefefefefefefefefefe8152f35b6040519061144882610c06565b5f8252565b6040519061145a82610c26565b60088252672ab731b7b6b6b7b760c11b6020830152565b6040519061147e82610c26565b60048252635261726560e01b6020830152565b6040519061149e82610c26565b600a825269556c747261205261726560b01b6020830152565b604051906114c482610c26565b60068252654d797468696360d01b6020830152565b604051906114e682610c26565b60078252662ab735b737bbb760c91b6020830152565b61ffff166005811061155257600b8110611549576010811061154057601681106115375760181161152f576102ce6114d9565b6102ce6114b7565b506102ce611491565b506102ce611471565b506102ce61144d565b5060405161155f81610c26565b600681526521b7b6b6b7b760d11b602082015290565b6001600160a01b03828116939184156116fe57825f5260026020528260409583875f2054169533151580611660575b506115df9087611634575b6001600160a01b0381165f908152600360205260409020600181540190556104bd845f52600260205260405f2090565b857fddf252ad1be2c89b69c2b068fc378daa952ba7f163c4a11628f55a4df523b3ef5f80a416928383036116135750505050565b6064945051926364283d7b60e01b8452600484015260248301526044820152fd5b61163d846132b5565b6001600160a01b0388165f90815260036020526040902080545f190190556115af565b91925090806116b7575b15611678579084915f6115a4565b868587611698579051637e27328960e01b81526004810191909152602490fd5b905163177e802f60e01b81523360048201526024810191909152604490fd5b5033861480156116dd575b8061166a5750845f5260046020523384885f2054161461166a565b505f868152600560209081528882203383529052604090205460ff166116c2565b604051633250574960e11b81525f6004820152602490fd5b1561171d57565b60405162461bcd60e51b815260206004820152601860248201527f496e73756666696369656e74206275726e20616d6f756e7400000000000000006044820152606490fd5b1561176957565b60405162461bcd60e51b815260206004820152601060248201526f125b9d985b1a59081b585a9bdc88125160821b6044820152606490fd5b156117a857565b60405162461bcd60e51b815260206004820152601060248201526f125b9d985b1a59081b5a5b9bdc88125160821b6044820152606490fd5b634e487b7160e01b5f52601160045260245ffd5b5f1981146107f75760010190565b3d1561182c573d9061181382610cc1565b916118216040519384610c41565b82523d5f602084013e565b606090565b1561183857565b60405162461bcd60e51b815260206004820152601060248201526f1216541148189d5c9b8819985a5b195960821b6044820152606490fd5b600281901b91906001600160fe1b038116036107f757565b6040519061189582610c26565b60098252684c697175696469747960b81b6020830152565b604051906118ba82610c26565b60088252674c6576657261676560c01b6020830152565b604051906118de82610c26565b600a825269566f6c6174696c69747960b01b6020830152565b6040519061190482610c26565b60098252684e617272617469766560b81b6020830152565b6040519061192982610c26565b6009825268546865204d6163726f60b81b6020830152565b6040519061194e82610c26565b600a8252694469736369706c696e6560b01b6020830152565b6040519061197482610c26565b6004825263464f4d4f60e01b6020830152565b6040519061199482610c26565b600382526211955160ea1b6020830152565b604051906119b382610c26565b6003825262524e4760e81b6020830152565b604051906119d282610c26565b600882526726b0bc102830b4b760c11b6020830152565b604051906119f682610c26565b6008825267151a194810da185d60c21b6020830152565b60405190611a1a82610c26565b600382526245676f60e81b6020830152565b634e487b7160e01b5f52603260045260245ffd5b90600c811015611a515760051b0190565b611a2c565b60ff611a60610c62565b91611a69611888565b8352611a736118ad565b6020840152611a806118d1565b6040840152611a8d6118f7565b6060840152611a9a61191c565b6080840152611aa7611941565b60a0840152611ab4611967565b60c0840152611ac1611987565b60e0840152611ace6119a6565b610100840152611adc6119c5565b610120840152611aea6119e9565b610140840152611af8611a0d565b61016084015216600c811015611b1557611b1191611a40565b5190565b50506102ce6114d9565b60405190611b2c82610c26565b600b82526a546f75636820477261737360a81b6020830152565b60405190611b5382610c26565b600b82526a121e5c195c9b1a5c5d5a5960aa1b6020830152565b60405190611b7a82610c26565b600682526546616d696c7960d01b6020830152565b60405190611b9c82610c26565b60058252644e6565647360d81b6020830152565b906004811015611a515760051b0190565b60405190611bce82610c26565b6005825264416c70686160d81b6020830152565b60405190611bef82610c26565b60048252630536c6f760e41b6020830152565b60405190611c0f82610c26565b600282526124b760f11b6020830152565b60405190611c2d82610c26565b600382526213dd5d60ea1b6020830152565b60405190611c4c82610c26565b6009825268546f6f204561726c7960b81b6020830152565b60405190611c7182610c26565b6008825267546f6f204c61746560c01b6020830152565b60405190611c9582610c26565b600a825269546f6f204c6974746c6560b01b6020830152565b60405190611cbb82610c26565b60088252670a8dede409aeac6d60c31b6020830152565b60405190611cdf82610c26565b60058252644d696e747360d81b6020830152565b60405190611d0082610c26565b600d82526c4f7264657220526f7574696e6760981b6020830152565b60405190611d2982610c26565b6006825265557074696d6560d01b6020830152565b60405190611d4b82610c26565b600a825269283932b234b1ba34b7b760b11b6020830152565b60405190611d7182610c26565b60068252655368696c6c7360d01b6020830152565b60405190611d9382610c26565b60068252655073794f707360d01b6020830152565b60405190611db582610c26565b60048252635275677360e01b6020830152565b60405190611dd582610c26565b60048252635363616d60e01b6020830152565b60405190611df582610c26565b60048252631095119160e21b6020830152565b60405190611e1582610c26565b600a825269151bdc0814da59db985b60b21b6020830152565b60405190611e3b82610c26565b600c82526b4d61726b657420507269636560a01b6020830152565b60405190611e6382610c26565b600a82526921b7b73b34b1ba34b7b760b11b6020830152565b60405190611e8982610c26565b600b82526a15185ad948141c9bd99a5d60aa1b6020830152565b60405190611eb082610c26565b600482526353697a6560e01b6020830152565b60405190611ed082610c26565b6008825267537472617465677960c01b6020830152565b60405190611ef482610c26565b6008825267536964656c696e6560c01b6020830152565b60405190611f1882610c26565b60098252682932b3bab630ba37b960b91b6020830152565b60405190611f3d82610c26565b60048252632132b0b960e11b6020830152565b60405190611f5d82610c26565b6004825263109d5b1b60e21b6020830152565b60405190611f7d82610c26565b600a825269213630b1b59029bbb0b760b11b6020830152565b60405190611fa382610c26565b600782526624b739b4b232b960c91b6020830152565b60405190611fc682610c26565b60048252634879706560e01b6020830152565b60405190611fe682610c26565b60048252634e65777360e01b6020830152565b6040519061200682610c26565b6004825263436f706560e01b6020830152565b6040519061202682610c26565b6004825263050756d760e41b6020830152565b6040519061204682610c26565b6004825263044756d760e41b6020830152565b6040519061206682610c26565b6004825263043686f760e41b6020830152565b6040519061208682610c26565b60078252662830ba3a32b93760c91b6020830152565b604051906120a982610c26565b600682526526b0b933b4b760d11b6020830152565b604051906120cb82610c26565b6004825263131a5c5960e21b6020830152565b604051906120eb82610c26565b60088252674d6178204c6f6e6760c01b6020830152565b6040519061210f82610c26565b600982526813585e0814da1bdc9d60ba1b6020830152565b6040519061213482610c26565b600582526446696c6c7360d81b6020830152565b6040519061215582610c26565b600c82526b26b0b935b2ba16a6b0b5b2b960a11b6020830152565b6040519061217d82610c26565b600682526514dc1c99585960d21b6020830152565b6040519061219f82610c26565b6006825265566f6c756d6560d01b6020830152565b9060ff809216600c81108015906124eb575b6124e057806122155750611b11916121dc610c82565b916121e5612127565b83526121ef612148565b60208401526121fc612170565b6040840152612209612192565b60608401521690611bb0565b600181036122575750611b119161222a610c82565b9161223361209c565b835261223d6120be565b602084015261224a6120de565b6040840152612209612102565b600281036122995750611b119161226c610c82565b91612275612019565b835261227f612039565b602084015261228c612059565b6040840152612209612079565b600381036122db5750611b11916122ae610c82565b916122b7611f96565b83526122c1611fb9565b60208401526122ce611fd9565b6040840152612209611ff9565b6004810361231d5750611b11916122f0610c82565b916122f9611f0b565b8352612303611f30565b6020840152612310611f50565b6040840152612209611f70565b6005810361235f5750611b1191612332610c82565b9161233b611e7c565b8352612345611ea3565b6020840152612352611ec3565b6040840152612209611ee7565b600681036123a15750611b1191612374610c82565b9161237d611de8565b8352612387611e08565b6020840152612394611e2e565b6040840152612209611e56565b600781036123e35750611b11916123b6610c82565b916123bf611d64565b83526123c9611d86565b60208401526123d6611da8565b6040840152612209611dc8565b600881036124255750611b11916123f8610c82565b91612401611cd2565b835261240b611cf3565b6020840152612418611d1c565b6040840152612209611d3e565b600981036124675750611b119161243a610c82565b91612443611c3f565b835261244d611c64565b602084015261245a611c88565b6040840152612209611cae565b600a036124a757611b119161247a610c82565b91612483611bc1565b835261248d611be2565b602084015261249a611c02565b6040840152612209611c20565b611b11916124b3610c82565b916124bc611b1f565b83526124c6611b46565b60208401526124d3611b6d565b6040840152612209611b8f565b5050506102ce6114d9565b50600483831610156121c6565b9061250a939291610849838383611575565b565b6040519061251982610c26565b600482526315dbdbd960e21b6020830152565b6040519061253982610c26565b6005825264086d8dee8d60db1b6020830152565b6040519061255a82610c26565b60058252642830b832b960d91b6020830152565b6040519061257b82610c26565b6004825263436c617960e01b6020830152565b6040519061259b82610c26565b60098252684c696d6573746f6e6560b81b6020830152565b604051906125c082610c26565b6005825264536c61746560d81b6020830152565b604051906125e182610c26565b600682526510985cd85b1d60d21b6020830152565b6040519061260382610c26565b60078252664772616e69746560c81b6020830152565b6040519061262682610c26565b60068252654d6172626c6560d01b6020830152565b6040519061264882610c26565b600682526542726f6e7a6560d01b6020830152565b6040519061266a82610c26565b600882526727b139b4b234b0b760c11b6020830152565b6040519061268e82610c26565b600682526529b4b63b32b960d11b6020830152565b604051906126b082610c26565b60048252634a61646560e01b6020830152565b604051906126d082610c26565b600782526610dc9e5cdd185b60ca1b6020830152565b604051906126f382610c26565b600482526309edcf2f60e31b6020830152565b6040519061271382610c26565b600582526420b6b132b960d91b6020830152565b6040519061273482610c26565b6008825267105b595d1a1e5cdd60c21b6020830152565b6040519061275882610c26565b600482526313dc185b60e21b6020830152565b6040519061277882610c26565b6007825266115b595c985b1960ca1b6020830152565b6040519061279b82610c26565b6008825267536170706869726560c01b6020830152565b604051906127bf82610c26565b60048252635275627960e01b6020830152565b604051906127df82610c26565b60058252644c6170697360d81b6020830152565b6040519061280082610c26565b600482526311dbdb1960e21b6020830152565b6040519061282082610c26565b60098252684d6574656f7269746560b81b6020830152565b906018811015611a515760051b0190565b61ffff612854610ca1565b9161285d61250c565b835261286761252c565b602084015261287461254d565b604084015261288161256e565b606084015261288e61258e565b608084015261289b6125b3565b60a08401526128a86125d4565b60c08401526128b56125f6565b60e08401526128c2612619565b6101008401526128d061263b565b6101208401526128de61265d565b6101408401526128ec612681565b6101608401526128fa6126a3565b6101808401526129086126c3565b6101a08401526129166126e6565b6101c0840152612924612706565b6101e0840152612932612727565b61020084015261294061274b565b61022084015261294e61276b565b61024084015261295c61278e565b61026084015261296a6127b2565b6102808401526129786127d2565b6102a08401526129866127f3565b6102c0840152612994612813565b6102e0840152166018811015611b1557611b1191612838565b156129b457565b60405162461bcd60e51b8152602060048201526014602482015273151bdad95b88191bd95cc81b9bdd08195e1a5cdd60621b6044820152606490fd5b91908260c09103126101eb5781516001600160401b03811681036101eb57916020810151612a1d81610536565b916040820151612a2c816105ca565b916060810151612a3b816105ca565b9160a06080830151612a4c816105ca565b9201516001600160781b03811681036101eb5790565b6040513d5f823e3d90fd5b90612a8060209282815194859201610277565b0190565b5f818152600260205260409020546001600160a01b0316908115612aa6575090565b60249060405190637e27328960e01b82526004820152fd5b906001600160401b038092166005019182116107f757565b906001600160401b03809216600b019182116107f757565b906001600160401b038092166010019182116107f757565b906001600160401b038092166016019182116107f757565b6001600160401b03808216906127108206166108238110612b9f576111e78110612b8d576119b78110612b7b57611f9311612b6a5750612b6360016102ce9216612b06565b61ffff1690565b6102ce91506006612b639106612aee565b506102ce91506005612b639106612ad6565b506102ce91506006612b639106612abe565b5061ffff9150600590061690565b9060405190612bbb82610c06565b5f82526001600160a01b038381169081156116fe578290815f52600260205260405f205416918215159283612c69575b6001600160a01b0387165f90815260036020526040902060018154019055612c1f876104bd855f52600260205260405f2090565b7fddf252ad1be2c89b69c2b068fc378daa952ba7f163c4a11628f55a4df523b3ef5f80a4612c515761250a9233612d31565b6040516339e3563760e11b81525f6004820152602490fd5b612c72836132b5565b6001600160a01b0381165f90815260036020526040902080545f19019055612beb565b6006546001600160a01b03163303612ca957565b60405163118cdaa760e01b8152336004820152602490fd5b908160209103126101eb57516102ce816101d9565b6102ce939260809260018060a01b031682525f602083015260408201528160608201520190610298565b6001600160a01b0391821681529116602082015260408101919091526080606082018190526102ce92910190610298565b91929092833b612d42575b50505050565b612d66916020916040519384928392630a85bd0160e11b9788855260048501612cd6565b03815f6001600160a01b0388165af15f9181612df8575b50612dbc5782612d8b611802565b8051919082612db557604051633250574960e11b81526001600160a01b0383166004820152602490fd5b6020915001fd5b6001600160e01b03191603612dd557505f808080612d3c565b604051633250574960e11b81526001600160a01b03919091166004820152602490fd5b612e1b91925060203d602011612e22575b612e138183610c41565b810190612cc1565b905f612d7d565b503d612e09565b92939193843b612e3b575b5050505050565b602091612e5e6040519485938493630a85bd0160e11b9889865260048601612d00565b03815f6001600160a01b0388165af15f9181612e9d575b50612e835782612d8b611802565b6001600160e01b03191603612dd557505f80808080612e34565b612eb791925060203d602011612e2257612e138183610c41565b905f612e75565b60405190612ecb82610c26565b60018252600360fc1b6020830152565b90612ee582610cc1565b612ef26040519182610c41565b8281528092612f03601f1991610cc1565b0190602036910137565b5f198101919082116107f757565b90600282018092116107f757565b90602082018092116107f757565b908151811015611a51570160200190565b8015612fc557805f81805b612fad5750612f6181612edb565b925b612f6c57505090565b5f1981019081116107f7578091600a91603083830681018091116107f75760f81b6001600160f81b0319165f1a90612fa49086612f37565b53049081612f63565b9150612fba600a916117f4565b910480839291612f53565b506102ce612ebe565b906001600160401b0380831680156130905790815f925b6130765750612ff382612edb565b916040519061300182610c26565b601082526f181899199a1a9b1b9c1cb0b131b232b360811b60208301525b82861661302e57509193505050565b613040670fffffffffffffff91612f0d565b9561305f613051600f831685612f37565b516001600160f81b03191690565b5f1a61306b8887612f37565b5360041c169461301f565b939091613082906117f4565b9360041c8094929194612fe5565b505090506102ce612ebe565b6001600160781b0316655af3107a4000670de0b6b3a764000080830492060480155f146130f757506102ce6130d36130e692612f48565b6106ac6040519384926020840190612a6d565b6402e303030360dc1b815260050190565b6102ce906106ac61311261310c602095612f48565b926132d7565b61313e604051958461312d889651809284808a019101610277565b850101600190601760f91b81520190565b90612a6d565b60405190606082018281106001600160401b03821117610c2157604052604082527f6768696a6b6c6d6e6f707172737475767778797a303132333435363738392b2f6040837f4142434445464748494a4b4c4d4e4f505152535455565758595a61626364656660208201520152565b908151156132ab57906131c4613144565b6131e06131db6131d48451612f1b565b6003900490565b611870565b916131f26131ed84612f29565b612edb565b60209160208201958151925f975b88858110156132635790866003600493019a86010151600180603f81818560121c168d0101518c60089160ff9586918282878b600c1c16860101511690851b01841b92858960061c160101511601901b93168b010151160160e01b815201613200565b509450959450955050600390068060011461329757600214613286575b50815290565b603d60f81b5f19909101525f613280565b50613d3d60f01b600119909101525f613280565b90506102ce61143b565b6132c7905f52600460205260405f2090565b80546001600160a01b0319169055565b600a811061334a5760648110613321576103e881106132f9576102ce90612f48565b6102ce6133086106ac92612f48565b604051600360fc1b60208201529283916021830161313e565b6102ce6133306106ac92612f48565b60405161030360f41b60208201529283916022830161313e565b6102ce6133596106ac92612f48565b6040516203030360ec1b60208201529283916023830161313e56fea26469706673582212203ebc0c40a056c3f7e9ac806333049e67ec12050daa80b97b0412f9986f8e285d64736f6c63430008180033","linkReferences":{}},"methodIdentifiers":{"BURN_ADDRESS()":"fccc2813","MIN_BURN()":"49844b1c","approve(address,uint256)":"095ea7b3","balanceOf(address)":"70a08231","getApproved(uint256)":"081812fc","getMajorName(uint8)":"84c011be","getMaterialName(uint16)":"bb08bdf2","getMaterialTier(uint16)":"0c46dcae","getMinorName(uint8,uint8)":"92b9780b","getTokenData(uint256)":"b09afec1","isApprovedForAll(address,address)":"e985e9c5","mint(uint8,uint8)":"29a0eee8","name()":"06fdde03","owner()":"8da5cb5b","ownerOf(uint256)":"6352211e","renounceOwnership()":"715018a6","royaltyBasisPoints()":"42260b5d","royaltyInfo(uint256,uint256)":"2a55205a","royaltyRecipient()":"4c00de82","safeTransferFrom(address,address,uint256)":"42842e0e","safeTransferFrom(address,address,uint256,bytes)":"b88d4fde","setApprovalForAll(address,bool)":"a22cb465","supportsInterface(bytes4)":"01ffc9a7","symbol()":"95d89b41","tokenData(uint256)":"b4b5b48f","tokenURI(uint256)":"c87b56dd","transferFrom(address,address,uint256)":"23b872dd","transferOwnership(address)":"f2fde38b"},"id":12}